:100000000C9474000C9493000C9493000C94930043
:100010000C9493000C9493000C9493000C94930014
:100020000C9493000C9493000C9493000C94930004
:100030000C9493000C9411010C9493000C94930075
:100040000C9493000C9493000C9493000C949300E4
:100050000C9493000C9493000C9493000C949300D4
:100060000C9493000C9493000C9493000C949300C4
:100070000C9493000C9493000C9493000C949300B4
:100080000C9493000C9493000C9493003E0348034B
:1000900054036503A203A703AC03B103B603BB0378
:1000A000C003E803EE03F507F507F8039F043705DF
:1000B000D70580062807F50725082A08130A410AEC
:1000C0004F0A2A0A5D0A8A0A980A740AA50AA80A27
:1000D000D00ADE0AE30AFE0A070BEF0A0D0B280B13
:1000E000310B190B370B3D0B11241FBECFEFD0E4A2
:1000F000DEBFCDBF11E0A0E0B1E0EAEBF2E200E04C
:100100000BBF02C007900D92A232B107D9F721E0D0
:10011000A2E2B1E001C01D92A338B207E1F70E944C
:100120002B0E0C945B110C940000CF93DF9300D046
:1001300000D0CDB7DEB769837A838B839C838981B6
:100140009A81AB81BC818093000190930101A093BF
:100150000201B09303018091000190910101A091EF
:100160000201B09103018093230190932401A09395
:100170002501B093260100000F900F900F900F9073
:10018000DF91CF910895CF93DF93CDB7DEB781E8AC
:1001900090E02BE0FC01208388E890E02DE730E040
:1001A000FC01318320838FE690E022E0FC01208374
:1001B00084E890E0FC01118210828091000190910E
:1001C0000101A0910201B09103018093230190935A
:1001D0002401A0932501B09326018FE590E02FE53F
:1001E00030E0F90120812068FC0120830000DF91CC
:1001F000CF910895CF93DF93CDB7DEB781E890E03C
:10020000FC0110820000DF91CF910895CF93DF931E
:10021000CDB7DEB781E0809322010000DF91CF915E
:1002200008951F920F9200905F000F92112400908A
:100230005B000F922F933F934F935F936F937F9346
:100240008F939F93AF93BF93EF93FF93CF93DF93DE
:10025000CDB7DEB78091230190912401A0912501B3
:10026000B09126010197A109B109809323019093D0
:100270002401A0932501B093260180912301909140
:100280002401A0912501B0912601892B8A2B8B2B6B
:1002900091F40E9406018091000190910101A091CA
:1002A0000201B09103018093230190932401A09354
:1002B0002501B09326010000DF91CF91FF91EF91CE
:1002C000BF91AF919F918F917F916F915F914F916E
:1002D0003F912F910F9000925B000F9000925F0072
:1002E0000F901F901895CF93DF93CDB7DEB72C9763
:1002F0000FB6F894DEBF0FBECDBF6D837E838F83B4
:10030000988729873A874B875C878D819E81AF814B
:10031000B88529853A854B855C85BC01CD010E9455
:100320008110DC01CB0189839A83AB83BC838981F3
:100330009A81AB81BC81892B8A2B8B2B29F48985EF
:100340009A85AB85BC8511C089859A85AB85BC85AE
:100350008D839E83AF83B88789819A81AB81BC816D
:1003600089879A87AB87BC87D0CFBC01CD012C96FB
:100370000FB6F894DEBF0FBECDBFDF91CF910895C9
:10038000CF93DF9300D01F92CDB7DEB789837B83F5
:100390006A8389818A3031F48A819B81BC018DE036
:1003A0000E94C00180EC90E0FC018081882F90E0E9
:1003B00080729927892BB1F386EC90E02981FC01AA
:1003C000208380E090E00F900F900F90DF91CF910D
:1003D0000895CF93DF931F92CDB7DEB789838CE763
:1003E00090E02981283028F02CE730E0F9012081C5
:1003F00001C02981FC0120831092270106C0000062
:10040000809127018F5F80932701809127018F3092
:10041000B0F300000F90DF91CF910895CF93DF9359
:10042000CDB7DEB78AE790E02AE730E0F901208116
:10043000206EFC0120830000DF91CF910895CF93BF
:10044000DF9300D0CDB7DEB79A83898381E00E9425
:10045000E90189819A8182309105C1F0833091054B
:100460002CF4009749F0019761F04EC0833091055C
:1004700039F10497B9F148C081E090E09A8389830B
:1004800047C082E090E09A83898342C088E790E089
:10049000FC01808191818536924028F083E090E0D4
:1004A0009A83898334C088E790E0FC018081918140
:1004B0008C39914060F584E090E09A83898327C06D
:1004C00088E790E0FC01808191818C39914028F48B
:1004D00084E090E09A8389831BC082E090E09A8355
:1004E000898316C088E790E0FC0180819181853680
:1004F000924028F083E090E09A83898309C082E0EB
:1005000090E09A83898304C01A82198201C0000096
:1005100089819A818230910509F486C083309105E2
:1005200034F4009709F482C0019741F084C083300D
:10053000910559F0049709F440C07DC080E880938C
:10054000740187EC80937E0176C080917E01883FA4
:1005500039F481EF80937E0185E080937C0168C04F
:1005600080917E01813F39F483EE80937E0184E0A7
:1005700080937C015DC080917E01833E39F487ECDD
:1005800080937E0183E080937C0152C080917E0144
:10059000873C39F48FE880937E0182E080937C0170
:1005A00047C080917E018F3809F042C08FE180936F
:1005B0007E0181E080937C013BC080917E018F3180
:1005C00039F48FE880937E0182E080937C0132C011
:1005D00080917E018F3839F487EC80937E0183E02F
:1005E00080937C0127C080917E01873C39F483EEA3
:1005F00080937E0184E080937C011CC080917E0109
:10060000833E39F481EF80937E0185E080937C0105
:1006100011C080917E01813F69F488EF80937E0153
:1006200086E080937C0106C0000005C0000003C086
:10063000000001C0000089819A810F900F90DF9126
:10064000CF910895CF93DF9300D0CDB7DEB79A83D3
:10065000898389819A81092E000CAA0BBB0B40E08B
:1006600050E02AE030E0841B950B2817390708F486
:1006700090C08A5B9F4FFC010C94A3108091750180
:10068000882309F089C081E090E09A83898384C03F
:1006900080917501882319F01A82198284C082E042
:1006A00090E09A8389837FC080917501882319F037
:1006B0001A82198273C080917001853008F06EC073
:1006C00083E090E09A83898369C0809175018823D3
:1006D00019F01A82198264C080917B01813029F45B
:1006E00084E090E09A8389835BC080917B018230B3
:1006F00029F485E090E09A83898352C080917B0140
:10070000833029F486E090E09A83898349C0809100
:100710007B01843029F487E090E09A83898340C08C
:1007200080917B01853029F488E090E09A83898369
:1007300037C080917B01863099F589E090E09A83FB
:1007400089832EC08AE090E09A8389832CC08AE056
:1007500090E09A83898327C08AE090E09A83898316
:1007600022C08AE090E09A8389831DC08AE090E0ED
:100770009A83898318C08AE090E09A83898313C0A2
:1007800080917001803170F082E090E09A838983DB
:1007900009C01A82198207C0000005C0000003C00A
:1007A000000001C0000089819A81092E000CAA0B6B
:1007B000BB0B40E050E02AE030E0841B950B28178B
:1007C000390708F412C48F5A9F4FFC010C94A310F0
:1007D0008FEF8093760110926D0114C487EC8093A3
:1007E000760181E080936D0183E080937B010AC4F0
:1007F00080916B01803F60F50E940B1181709078B1
:10080000992324F401978E6F9F6F01969093720144
:10081000809371018091710190917201892B39F45B
:100820008FE18093760181E080937B01E0C380912A
:10083000710190917201019709F0D9C380917601FD
:10084000869580688093760182E080937B01CFC398
:1008500080916B01803F08F4CAC30E940B1123E012
:1008600030E0B9010E946D10909372018093710184
:100870008091710190917201892BB1F48091760180
:100880008695806880937601809176018695806850
:1008900080937601809176018695806880937601B9
:1008A00084E080937B01A3C38091710190917201D8
:1008B0000197E1F4809176018695806880937601B6
:1008C000809176018695806880937601809176018B
:1008D0008695806880937601809176018695806800
:1008E0008093760185E080937B0181C380917101C3
:1008F00090917201029709F07AC3809176018695F2
:1009000080688093760180917601869580688093D7
:10091000760180917601869580688093760180913A
:100920007601869580688093760180917601869520
:1009300080688093760186E080937B0158C3809124
:100940006B01803F78F50E940B118170907899239C
:1009500024F401978E6F9F6F01969093720180939C
:1009600071018091710190917201892B39F48FE8A6
:100970008093760182E080937B013BC3809171017B
:1009800090917201019709F034C380917601882F0C
:1009900090E0880F991F81608093760181E08093B9
:1009A0007B0127C380916B01803F08F422C30E9422
:1009B0000B1123E030E0B9010E946D109093720199
:1009C000809371018091710190917201892B81F462
:1009D000809176018695806880937601809176017A
:1009E000869580688093760184E080937B0101C3C3
:1009F00080917101909172010197B1F4809176011B
:100A000086958068809376018091760186958068CE
:100A10008093760180917601869580688093760137
:100A200085E080937B01E5C2809171019091720114
:100A3000029709F0DEC280917601869580688093E6
:100A40007601809176018695806880937601809109
:100A500076018695806880937601809176018695EF
:100A600080688093760186E080937B01C2C280918A
:100A70006B01803F08F048C00E940B1123E030E07A
:100A8000B9010E946D109093720180937101809161
:100A9000710190917201892B69F480917601882F00
:100AA00090E0880F991F81608093760182E08093A7
:100AB0007B01A1C280917101909172010197B1F403
:100AC00080917601882F90E0880F991F8160809334
:100AD000760180917601882F90E0880F991F8160C0
:100AE0008093760181E080937B0185C280917101C2
:100AF00090917201029709F07EC287EC8093760193
:100B000083E080937B0177C280916B01803F08F482
:100B100072C20E940B1123E030E0B9010E946D10F7
:100B20009093720180937101809171019091720193
:100B3000892B51F4809176018695806880937601A7
:100B400084E080937B0157C2809171019091720182
:100B5000019781F480917601869580688093760173
:100B600080917601869580688093760185E08093F8
:100B70007B0141C28091710190917201029709F04D
:100B80003AC2809176018695806880937601809143
:100B900076018695806880937601809176018695AE
:100BA00080688093760186E080937B0124C28091E7
:100BB0006B01803F08F060C00E940B1123E030E021
:100BC000B9010E946D109093720180937101809120
:100BD000710190917201892B69F480917601882FBF
:100BE00090E0880F991F81608093760183E0809365
:100BF0007B0103C280917101909172010197B1F460
:100C000080917601882F90E0880F991F81608093F2
:100C1000760180917601882F90E0880F991F81607E
:100C20008093760182E080937B01E7C1809171011E
:100C300090917201029709F0E0C180917601882FAE
:100C400090E0880F991F81608093760180917601F2
:100C5000882F90E0880F991F8160809376018091A2
:100C60007601882F90E0880F991F8160809376012C
:100C700081E080937B01C1C180916B01803F08F4CA
:100C8000BCC10E940B1123E030E0B9010E946D103D
:100C90009093720180937101809171019091720122
:100CA000892B39F483EE8093760184E080937B0175
:100CB000A4C18091710190917201019751F48091CA
:100CC0007601869580688093760185E080937B012C
:100CD00094C18091710190917201029709F08DC1C8
:100CE0008091760186958068809376018091760167
:100CF000869580688093760186E080937B017DC134
:100D000080916B01803F08F072C00E940B1123E0BC
:100D100030E0B9010E946D109093720180937101CF
:100D20008091710190917201892BB1F480917601CB
:100D3000882F90E0880F991F8160809376018091C1
:100D40007601882F90E0880F991F8160809376014B
:100D500083E080937B0153C1809171019091720176
:100D60000197F9F480917601882F90E0880F991F00
:100D700081608093760180917601882F90E0880FC2
:100D8000991F81608093760180917601882F90E091
:100D9000880F991F81608093760182E080937B01A8
:100DA0002EC18091710190917201029709F027C1C3
:100DB00080917601882F90E0880F991F8160809341
:100DC000760180917601882F90E0880F991F8160CD
:100DD0008093760180917601882F90E0880F991F8B
:100DE00081608093760181E080937B0108C18091CE
:100DF0006B01803F08F403C10E940B118170907851
:100E0000992324F401978E6F9F6F0196909372013E
:100E1000809371018091710190917201892B39F455
:100E200081EF8093760185E080937B01E8C080911B
:100E3000710190917201019709F0E1C080917601F2
:100E4000869580688093760186E080937B01D7C089
:100E500080916B01803F08F096C00E940B1123E047
:100E600030E0B9010E946D1090937201809371017E
:100E70008091710190917201892BF9F48091760132
:100E8000882F90E0880F991F816080937601809170
:100E90007601882F90E0880F991F816080937601FA
:100EA00080917601882F90E0880F991F8160809350
:100EB000760183E080937B01A4C0809171019091C1
:100EC0007201019741F580917601882F90E0880F9B
:100ED000991F81608093760180917601882F90E040
:100EE000880F991F81608093760180917601882F09
:100EF00090E0880F991F8160809376018091760140
:100F0000882F90E0880F991F81608093760182E09E
:100F100080937B0176C0809171019091720102975C
:100F200009F06FC080917601882F90E0880F991F9B
:100F300081608093760180917601882F90E0880F00
:100F4000991F81608093760180917601882F90E0CF
:100F5000880F991F81608093760180917601882F98
:100F600090E0880F991F81608093760180917601CF
:100F7000882F90E0880F991F81608093760181E02F
:100F800080937B013EC080916B01803FD0F10E9435
:100F90000B1181709078992324F401978E6F9F6FC5
:100FA00001969093720180937101809171019091EB
:100FB0007201892B69F480917601882F90E0880F67
:100FC000991F81608093760185E080937B0119C031
:100FD0008091710190917201019799F488EF80934B
:100FE000760186E080937B010CC000000BC00000FE
:100FF00009C0000007C0000005C0000003C00000D9
:1010000001C0000089819A810F900F90DF91CF91EC
:101010000895CF93DF9300D0CDB7DEB79A8389834D
:1010200089819A81092E000CAA0BBB0B40E050E08D
:101030002BE030E0841B950B2817390708F48BC28E
:10104000845A9F4FFC010C94A31081E090E09A8396
:10105000898391C280917A01803409F0EFC0809138
:101060007C01813049F480916B018F3729F482E053
:1010700090E09A838983D6C180917C01813049F4C4
:1010800080916B018F3B29F483E090E09A83898300
:10109000C9C180917C01813049F480916B018F3D01
:1010A00029F485E090E09A838983BCC180917C011A
:1010B000823049F480916B018F3B29F482E090E00B
:1010C0009A838983AFC180917C01823049F48091F9
:1010D0006B018F3D29F483E090E09A838983A2C15C
:1010E00080917C01823049F480916B018F3E29F41C
:1010F00085E090E09A83898395C180917C0183305B
:1011000049F480916B018F3D29F482E090E09A834D
:10111000898388C180917C01833049F480916B017F
:101120008F3E29F483E090E09A8389837BC180918C
:101130007C01833049F480916B01873F29F485E07D
:1011400090E09A8389836EC180917C01843049F458
:1011500080916B018F3E29F482E090E09A8389832D
:1011600061C180917C01843049F480916B01873F9B
:1011700029F483E090E09A83898354C180917C01B3
:10118000843049F480916B018B3F29F485E090E035
:101190009A83898347C180917C01853049F480918D
:1011A0006B01873F29F482E090E09A8389833AC1FA
:1011B00080917C01853049F480916B018B3F29F44B
:1011C00083E090E09A8389832DC180917C018530F2
:1011D00049F480916B018D3F29F485E090E09A837A
:1011E000898320C180917C01863049F480916B0114
:1011F0008B3F29F482E090E09A83898313C1809128
:101200007C01863049F480916B018D3F29F483E0A5
:1012100090E09A83898306C180917C01863049F4ED
:1012200080916B018E3F29F485E090E09A83898359
:10123000F9C08AE090E09A83898390C180917A0115
:10124000823009F08BC180917B01813049F480911B
:101250006B018F3729F486E090E09A838983E2C09E
:1012600080917B01813049F480916B018F3B29F49F
:1012700087E090E09A838983D5C080917B0181309B
:1012800049F480916B018F3D29F489E090E09A83C5
:101290008983C8C080917B01823049F480916B01C1
:1012A0008F3B29F486E090E09A838983BBC08091CC
:1012B0007B01823049F480916B018F3D29F487E0F6
:1012C00090E09A838983AEC080917B01823049F49B
:1012D00080916B018F3E29F489E090E09A838983A5
:1012E000A1C080917B01833049F480916B018F3DD7
:1012F00029F486E090E09A83898394C080917B01F1
:10130000833049F480916B018F3E29F487E090E0AF
:101310009A83898387C080917B01833049F48091CF
:101320006B01873F29F489E090E09A8389837AC032
:1013300080917B01843049F480916B018F3E29F4C8
:1013400086E090E09A8389836DC080917B01843030
:1013500049F480916B01873F29F487E090E09A83FC
:10136000898360C080917B01843049F480916B0156
:101370008B3F29F489E090E09A83898353C0809160
:101380007B01853049F480916B01873F29F486E029
:1013900090E09A83898346C080917B01853049F42F
:1013A00080916B018B3F29F487E090E09A838983D9
:1013B00039C080917B01853049F480916B018D3F6C
:1013C00029F489E090E09A8389832CC080917B0185
:1013D000863049F480916B018B3F29F486E090E0E0
:1013E0009A8389831FC080917B01863049F4809164
:1013F0006B018D3F29F487E090E09A83898312C0C6
:1014000080917B01863049F480916B018E3F29F4F5
:1014100089E090E09A83898305C08BE090E09A830D
:1014200089839CC09BC080916B018E3F49F4809161
:101430007001823029F085E090E09A83898390C022
:1014400080917001823009F08BC081E090E09A8336
:10145000898386C080916B018F3749F48091700138
:10146000823029F082E090E09A8389837BC080916A
:101470007001823009F076C081E090E09A83898320
:1014800071C080917001823029F481E090E09A83EC
:10149000898371C084E090E09A8389836CC08091D5
:1014A0007801882329F080917001823009F05CC0B6
:1014B00083E090E09A83898357C080916B018E3FCF
:1014C00049F480917001803429F089E090E09A839A
:1014D00089834CC080917001803409F047C081E05D
:1014E00090E09A83898342C080916B018F3749F4E1
:1014F00080917001803429F086E090E09A8389839E
:1015000037C080917001803499F581E090E09A8332
:1015100089832EC080917001803429F481E090E0AD
:101520009A83898328C088E090E09A83898323C0C6
:1015300080917801882321F0809170018034D1F46A
:1015400087E090E09A83898315C01A82198213C0BC
:101550001A82198210C01A8219820DC000000BC0B5
:10156000000009C0000007C0000005C0000003C063
:10157000000001C0000089819A81092E000CAA0B8D
:10158000BB0B40E050E02BE030E0841B950B2817AC
:10159000390708F478C088599F4FFC010C94A310B8
:1015A00082E08093780180E4809370018FEE8093D5
:1015B0006B018091700180937A0166C08091700107
:1015C00080937A0161C0809170018695809370014B
:1015D00080916B018695806880936B0155C08091E6
:1015E000700186958093700180916B01882F90E047
:1015F000880F991F816080936B0146C082E08093C1
:101600007801809170018695809370013DC0809132
:10161000780181508093780137C080917001880FE4
:101620008093700180916B018695806880936B0137
:101630002BC080917001880F8093700180916B01A5
:10164000882F90E0880F991F816080936B011CC0E8
:1016500082E08093780180917001880F80937001FF
:1016600013C0809178018150809378010DC08091E2
:101670006F018F5F80936F0107C0809173018F5F4F
:101680008093730101C0000089819A810F900F90AF
:10169000DF91CF910895CF93DF9300D0CDB7DEB720
:1016A0009A83898389819A818230910539F18330C7
:1016B00091052CF4009771F00197B1F05DC0843072
:1016C000910509F444C0843091059CF1059709F413
:1016D0004CC052C080916C01823009F050C081E052
:1016E00090E09A8389834BC080916C01882309F034
:1016F00048C082E090E09A83898343C080916C0166
:10170000843029F483E090E09A8389833CC08091FF
:101710006C01883029F484E090E09A83898333C097
:1017200080916C01823079F585E090E09A8389831D
:101730002AC080916C01883029F484E090E09A837B
:10174000898324C082E090E09A8389831FC08091BE
:101750006C01843029F483E090E09A83898316C079
:1017600082E090E09A83898311C080916C01882384
:1017700061F41A82198209C01A82198207C0000016
:1017800005C0000003C0000001C0000089819A81EB
:101790008230910509F498C08330910534F40097A4
:1017A00009F494C0019761F096C08430910509F462
:1017B0004CC0843091058CF0059709F47DC08BC036
:1017C00081E08093750181E080936A0187EC8093CA
:1017D0006E0183E080937B017EC080916E01883F23
:1017E00039F481EF80936E0185E080937B0170C0B6
:1017F00080916E01813F39F483EE80936E0184E025
:1018000080937B0165C080916E01833E39F487EC43
:1018100080936E0183E080937B015AC080916E01BA
:10182000873C39F48FE880936E0182E080937B01DE
:101830004FC080916E018F3809F04AC08FE18093CC
:101840006E0181E080937B0143C080916E018F31F6
:1018500039F48FE880936E0182E080937B013AC077
:1018600080916E018F3839F487EC80936E0183E0AC
:1018700080937B012FC080916E01873C39F483EE09
:1018800080936E0184E080937B0124C080916E017F
:10189000833E39F481EF80936E0185E080937B0174
:1018A00019C080916E01813FA9F488EF80936E0189
:1018B00086E080937B010EC01092750110926A0140
:1018C0008FEF80936E0107C0000005C0000003C0C9
:1018D000000001C0000089819A810F900F90DF9174
:1018E000CF910895CF93DF9300D0CDB7DEB79A8321
:1018F000898389819A818130910551F082309105E7
:1019000061F0892B69F481E090E09A8389830BC0B0
:1019100082E090E09A83898306C01A82198203C00C
:101920001A821982000089819A818130910569F0BB
:101930008230910589F0892B09F015C086E68093E5
:101940007D018FE9809379010EC08CE380937D0146
:101950008BEF8093790107C088E180937D018DEF43
:1019600080937901000089819A810F900F90DF9117
:10197000CF910895CF93DF9300D0CDB7DEB79A8390
:10198000898389819A818230910579F1833091052B
:101990002CF4009771F00197F1F07CC08430910530
:1019A00009F458C084309105A4F1059709F45EC08C
:1019B00071C080916C01882349F080916F01833060
:1019C00028F480917301833008F467C081E090E0CF
:1019D0009A83898362C080917701882309F05FC070
:1019E00082E090E09A8389835AC080916C018130B3
:1019F00041F080916F01833020F480917301833036
:101A000018F01A8219824EC083E090E09A8389838D
:101A100049C080917501882329F484E090E09A837D
:101A200089833FC080917501882329F085E090E08B
:101A30009A83898336C080916C01813041F0809116
:101A40006F01833020F480917301833050F11A824A
:101A5000198227C080916C01813019F41A82198291
:101A600021C082E090E09A8389831CC080916C0140
:101A7000813041F080916F01833020F480917301B7
:101A8000833018F01A8219820DC082E090E09A83A8
:101A9000898308C01A82198205C0000003C00000B3
:101AA00001C0000089819A818230910509F445C006
:101AB000833091052CF4009779F0019761F171C0A2
:101AC0008430910509F453C0843091050CF442C070
:101AD000059709F459C065C010926F011092730107
:101AE00087EC80937E0183E080937C0183E0809388
:101AF0007B0187EC8093760187EC80936E011092D6
:101B0000750180E4809370018FEE80936B0188E50E
:101B10008093770146C088E290E020917D01FC012E
:101B200020838BE290E020917901FC012083809159
:101B3000770181508093770134C088E290E0209152
:101B40007401FC0120838BE290E020917E01FC0176
:101B5000208327C088E290E020917001FC0120835F
:101B60008BE290E020916B01FC0120831AC088E297
:101B700090E020916D01FC0120838BE290E02091A8
:101B80007601FC0120830DC088E290E020916A017B
:101B9000FC0120838BE290E020916E01FC01208308
:101BA000000089819A810F900F90DF91CF91089565
:101BB0002F923F92CF93DF93CDB7DEB72E970FB61C
:101BC000F894DEBF0FBECDBF6D837E838F83988771
:101BD00029873A874B875C873E862D868D819E813B
:101BE000AF81B88529853A854B855C85BC01CD01DF
:101BF0000E948110DC01CB0189839A83AB83BC8373
:101C000089819A81AB81BC81892B8A2B8B2B29F40A
:101C100089859A85AB85BC8511C089859A85AB85F8
:101C2000BC858D839E83AF83B88789819A81AB8180
:101C3000BC8189879A87AB87BC87D0CFBC01CD0197
:101C40002E960FB6F894DEBF0FBECDBFDF91CF91B9
:101C50003F902F9008952F923F920F931F93CF9311
:101C6000DF93CDB7DEB765970FB6F894DEBF0FBE32
:101C7000CDBF81E290E0FC01108282E290E02FEF84
:101C8000FC01208384E290E0FC01108285E290E078
:101C90002FEFFC01208387E290E02FEFFC012083EF
:101CA00088E290E0FC0110828AE290E02FEFFC01D4
:101CB00020838BE290E0FC01108210926C010E9464
:101CC0000E0280E090E00E945A10DC01CB010E94DD
:101CD0000F118CE0E6E1F1E0DE011A9601900D9221
:101CE0008A95E1F786E090E098878F838FEF898768
:101CF0008985809328018FE090E0A0E0B0E0809398
:101D0000290190932A01A0932B01B0932C0180917B
:101D1000290190912A01A0912B01B0912C0180936F
:101D20002D0190932E01A0932F01B09330018FE1EC
:101D300092E0909332018093310189858093330141
:101D40008FE090E0A0E0B0E0809334019093350103
:101D5000A0933601B0933701809134019091350101
:101D6000A0913601B09137018093380190933901E9
:101D7000A0933A01B0933B0182E293E090933D013E
:101D800080933C01898580933E018FE090E0A0E044
:101D9000B0E080933F0190934001A0934101B09344
:101DA000420180913F0190914001A0914101B09189
:101DB00042018093430190934401A0934501B09365
:101DC000460189E098E09093480180934701898516
:101DD000809349018FE090E0A0E0B0E080934A0159
:101DE00090934B01A0934C01B0934D0180914A0117
:101DF00090914B01A0914C01B0914D0180934E0107
:101E000090934F01A0935001B09351018BE49BE05C
:101E1000909353018093520189858093540181E00E
:101E200090E0A0E0B0E08093550190935601A0931C
:101E30005701B09358018091550190915601A0919E
:101E40005701B09158018093590190935A01A09382
:101E50005B01B0935C0182E79CE090935E0180930C
:101E60005D01898580935F0181E090E0A0E0B0E0B2
:101E70008093600190936101A0936201B09363012C
:101E80008091600190916101A0916201B091630124
:101E90008093640190936501A0936601B0936701FC
:101EA0008AEB9CE090936901809368018A859B8509
:101EB000FC0181819281A381B4818B839C83AD835A
:101EC000BE8381E090E09A83898329C089819A81C9
:101ED000880F991F9E012F5F3F4F820F931F099616
:101EE000FC0180819181FC012181328143815481F7
:101EF0008B819C81AD81BE81BE01665F7F4F1B01DE
:101F0000BC01CD010E94D80DDC01CB018B839C83E9
:101F1000AD83BE8389819A8101969A8389832981C1
:101F20003A818F8198852817390780F28B819C81AF
:101F3000AD81BE81BC01CD010E9495000E94C3000D
:101F400083E290E0FC018081809580936C011A828D
:101F50001982A0C089819A81880F991F9E012F5FE5
:101F60003F4F820F931F0996FC0180819181FC01F4
:101F7000258136814781508589819A81880F991FF3
:101F8000BE016F5F7F4F860F971F0996FC0180810E
:101F90009181FC0181819281A381B4812817390745
:101FA0004A075B0709F045C089819A81880F991F0C
:101FB0009E012F5F3F4F820F931F0996FC01008106
:101FC000118189819A81880F991F9E012F5F3F4F50
:101FD000820F931F0996FC0180819181FC0121856C
:101FE000328589819A81880F991FAE014F5F5F4FBB
:101FF000840F951F0996FC0180819181FC018081ED
:10200000082E000C990BF9010995F801808389814C
:102010009A81880F991F9E012F5F3F4F820F931F58
:102020000996FC0180819181FC011582168217823C
:10203000108689819A81880F991F9E012F5F3F4FDB
:10204000820F931F0996FC016081718189819A81B9
:10205000880F991F9E012F5F3F4F820F931F099694
:10206000FC0180819181FC01258136814781508569
:102070008B819C81AD81BE81820F931FA41FB51FF0
:10208000FB0185839683A783B08789819A81019616
:102090009A83898329813A818F8198852817390706
:1020A00008F458CF0000809122018823E1F31092B8
:1020B000220146CFFC010FB6F89460917F01709128
:1020C000800180918101909182010FBE309721F0B3
:1020D0006083718382839383089597FB072E16F4A0
:1020E000009407D077FD09D00E94AC1007FC05D002
:1020F0003EF4909581959F4F0895709561957F4F1F
:102100000895A1E21A2EAA1BBB1BFD010DC0AA1F38
:10211000BB1FEE1FFF1FA217B307E407F50720F050
:10212000A21BB30BE40BF50B661F771F881F991FCB
:102130001A9469F760957095809590959B01AC0114
:10214000BD01CF010895EE0FFF1F0024001C0BBE40
:102150000790F691E02D0994AA1BBB1B51E107C023
:10216000AA1FBB1FA617B70710F0A61BB70B881F27
:10217000991F5A95A9F780959095BC01CD010895B6
:102180008F929F92AF92BF92CF92DF92EF92FF9287
:10219000CF93DF93EC01688179818A819B816115FE
:1021A00071058105910521F464E279ED8BE597E0F5
:1021B0002DE133EF41E050E00E941A1149015A012C
:1021C0009B01AC01A7EAB1E40E9439116B017C01CB
:1021D000ACEEB4EFA50194010E944711DC01CB01E4
:1021E0008C0D9D1DAE1DBF1DB7FF03C00197A1093A
:1021F000B04888839983AA83BB839F77DF91CF916F
:10220000FF90EF90DF90CF90BF90AF909F908F9016
:1022100008950C94C01082E191E00C94C010A0E0ED
:10222000B0E08093120190931301A0931401B09336
:1022300015010895052E97FB1EF400940E9431119C
:1022400057FD07D00E94811007FC03D04EF40C9478
:10225000311150954095309521953F4F4F4F5F4F2D
:10226000089590958095709561957F4F8F4F9F4F02
:1022700008950E944C11A59F900DB49F900DA49FAE
:10228000800D911D11240895B7FF0C9439110E94FF
:102290003911821B930B0895A29FB001B39FC00117
:1022A000A39F700D811D1124911DB29F700D811D82
:0A22B0001124911D0895F894FFCF4A
:1022BA00010000000000000200000000C001000050
:1022CA00000001000000280133013E0149015401C8
:0222DA005F01A2
:00000001FF
