:100000000C946E000C948D000C948D000C948D005B
:100010000C948D000C948D000C948D000C948D002C
:100020000C948D000C948D000C948D000C948D001C
:100030000C948D000C940B010C948D000C948D008D
:100040000C948D000C948D000C948D000C948D00FC
:100050000C948D000C948D000C948D000C948D00EC
:100060000C948D000C948D000C948D000C948D00DC
:100070000C948D000C948D000C948D000C948D00CC
:100080000C948D000C948D000C948D003803420369
:100090004E035F039C03A103A603AB03B003B503A8
:1000A000BA03E203E803EF07EF07F203990431050F
:1000B000D1057A062207EF071F082408120A400A12
:1000C000290A4A0A760A600A7F0AA50AB00AB50A0E
:1000D000D00AC10AD60AF10AE20AF70A11241FBEA1
:1000E000CFEFD0E4DEBFCDBF11E0A0E0B1E0EAE0A9
:1000F000F2E200E00BBF02C007900D92A232B107FE
:10010000D9F721E0A2E2B1E001C01D92A138B20707
:10011000E1F70E94D30D0C9403110C940000CF93CF
:10012000DF9300D000D0CDB7DEB769837A838B83AD
:100130009C8389819A81AB81BC81809300019093DB
:100140000101A0930201B0930301809100019091FD
:100150000101A0910201B0910301809323019093CA
:100160002401A0932501B093260100000F900F9069
:100170000F900F90DF91CF910895CF93DF93CDB77C
:10018000DEB781E890E02BE0FC01208388E890E076
:100190002DE730E0FC01318320838FE690E022E000
:1001A000FC01208384E890E0FC01118210828091A0
:1001B000000190910101A0910201B091030180938F
:1001C000230190932401A0932501B09326018FE58C
:1001D00090E02FE530E0F90120812068FC012083C8
:1001E0000000DF91CF910895CF93DF93CDB7DEB7B5
:1001F00081E890E0FC0110820000DF91CF9108952A
:10020000CF93DF93CDB7DEB781E08093220100006A
:10021000DF91CF9108951F920F9200905F000F928F
:10022000112400905B000F922F933F934F935F93A5
:100230006F937F938F939F93AF93BF93EF93FF93AE
:10024000CF93DF93CDB7DEB7809123019091240146
:10025000A0912501B09126010197A109B1098093D0
:10026000230190932401A0932501B093260180914E
:10027000230190912401A0912501B0912601892BA1
:100280008A2B8B2B91F40E940001809100019091A8
:100290000101A0910201B091030180932301909389
:1002A0002401A0932501B09326010000DF91CF9196
:1002B000FF91EF91BF91AF919F918F917F916F913E
:1002C0005F914F913F912F910F9000925B000F90A3
:1002D00000925F000F901F901895CF93DF93CDB7DA
:1002E000DEB72C970FB6F894DEBF0FBECDBF6D837F
:1002F0007E838F83988729873A874B875C878D8198
:100300009E81AF81B88529853A854B855C85BC0186
:10031000CD010E942910DC01CB0189839A83AB8334
:10032000BC8389819A81AB81BC81892B8A2B8B2BE1
:1003300029F489859A85AB85BC8511C089859A8504
:10034000AB85BC858D839E83AF83B88789819A8175
:10035000AB81BC8189879A87AB87BC87D0CFBC0132
:10036000CD012C960FB6F894DEBF0FBECDBFDF9146
:10037000CF910895CF93DF9300D01F92CDB7DEB712
:1003800089837B836A8389818A3031F48A819B8166
:10039000BC018DE00E94BA0180EC90E0FC018081FC
:1003A000882F90E080729927892BB1F386EC90E03A
:1003B0002981FC01208380E090E00F900F900F9046
:1003C000DF91CF910895CF93DF931F92CDB7DEB722
:1003D00089838CE790E02981283028F02CE730E0F1
:1003E000F901208101C02981FC012083109227019D
:1003F00006C00000809127018F5F809327018091C4
:1004000027018F30B0F300000F90DF91CF91089556
:10041000CF93DF93CDB7DEB78AE790E02AE730E0ED
:10042000F9012081206EFC0120830000DF91CF9133
:100430000895CF93DF9300D0CDB7DEB79A83898339
:1004400081E00E94E30189819A8182309105C1F0A7
:10045000833091052CF4009749F0019761F04EC06C
:100460008330910539F10497B9F148C081E090E0FB
:100470009A83898347C082E090E09A83898342C04F
:1004800088E790E0FC01808191818536924028F0D8
:1004900083E090E09A83898334C088E790E0FC0190
:1004A000808191818C39914060F584E090E09A835D
:1004B000898327C088E790E0FC01808191818C3995
:1004C000914028F484E090E09A8389831BC082E005
:1004D00090E09A83898316C088E790E0FC018081D0
:1004E00091818536924028F083E090E09A83898359
:1004F00009C082E090E09A83898304C01A8219823D
:1005000001C0000089819A818230910509F486C07A
:100510008330910534F4009709F482C0019741F0CB
:1005200084C08330910559F0049709F440C07DC020
:1005300080E88093730187EC80937C0176C0809182
:100540007C01883F39F481EF80937C0185E08093C2
:100550007A0168C080917C01813F39F483EE8093F9
:100560007C0184E080937A015DC080917C01833EB0
:1005700039F487EC80937C0183E080937A0152C048
:1005800080917C01873C39F48FE880937C0182E084
:1005900080937A0147C080917C018F3809F042C076
:1005A0008FE180937C0181E080937A013BC0809150
:1005B0007C018F3139F48FE880937C0182E0809355
:1005C0007A0132C080917C018F3839F487EC8093B6
:1005D0007C0183E080937A0127C080917C01873C75
:1005E00039F483EE80937C0184E080937A011CC00F
:1005F00080917C01833E39F481EF80937C0185E01A
:1006000080937A0111C080917C01813F69F488EF69
:1006100080937C0186E080937A0106C0000005C0CB
:10062000000003C0000001C0000089819A810F9082
:100630000F90DF91CF910895CF93DF9300D0CDB786
:10064000DEB79A83898389819A81092E000CAA0BCF
:10065000BB0B40E050E02AE030E0841B950B2817EC
:10066000390708F490C08A5B9F4FFC010C944B1033
:1006700080917401882309F089C081E090E09A8319
:10068000898384C080917401882319F01A821982A9
:1006900084C082E090E09A8389837FC08091740156
:1006A000882319F01A82198273C0809170018530F5
:1006B00008F06EC083E090E09A83898369C08091DE
:1006C0007401882319F01A82198264C0809179011B
:1006D000813029F484E090E09A8389835BC0809123
:1006E0007901823029F485E090E09A83898352C0B1
:1006F00080917901833029F486E090E09A838983A0
:1007000049C080917901843029F487E090E09A8390
:10071000898340C080917901853029F488E090E098
:100720009A83898337C080917901863099F589E071
:1007300090E09A8389832EC08AE090E09A8389832F
:100740002CC08AE090E09A83898327C08AE090E0F9
:100750009A83898322C08AE090E09A8389831DC0AE
:100760008AE090E09A83898318C08AE090E09A83B7
:10077000898313C080917001803170F082E090E035
:100780009A83898309C01A82198207C0000005C0B4
:10079000000003C0000001C0000089819A81092E79
:1007A000000CAA0BBB0B40E050E02AE030E0841BB9
:1007B000950B2817390708F412C48F5A9F4FFC0174
:1007C0000C944B108FEF8093750110926D0114C43F
:1007D00087EC8093750181E080936D0183E08093C5
:1007E00079010AC480916B01803F60F50E94B310CB
:1007F00081709078992324F401978E6F9F6F0196F2
:1008000090937201809371018091710190917201B6
:10081000892B39F48FE18093750181E08093790110
:10082000E0C38091710190917201019709F0D9C3E1
:1008300080917501869580688093750182E0809330
:100840007901CFC380916B01803F08F4CAC30E9435
:10085000B31023E030E0B9010E94151090937201AB
:10086000809371018091710190917201892BB1F493
:1008700080917501869580688093750180917501DE
:100880008695806880937501809175018695806852
:100890008093750184E080937901A3C380917101F5
:1008A000909172010197E1F48091750186958068BD
:1008B000809375018091750186958068809375019C
:1008C000809175018695806880937501809175018E
:1008D000869580688093750185E08093790181C356
:1008E0008091710190917201029709F07AC3809111
:1008F0007501869580688093750180917501869554
:1009000080688093750180917501869580688093D9
:10091000750180917501869580688093750180913D
:100920007501869580688093750186E080937901D2
:1009300058C380916B01803F78F50E94B31081709D
:100940009078992324F401978E6F9F6F019690936E
:100950007201809371018091710190917201892BD4
:1009600039F48FE88093750182E0809379013BC36D
:100970008091710190917201019709F034C38091C7
:100980007501882F90E0880F991F81608093750111
:1009900081E08093790127C380916B01803F08F447
:1009A00022C30E94B31023E030E0B9010E94151069
:1009B0009093720180937101809171019091720105
:1009C000892B81F4809175018695806880937501EB
:1009D00080917501869580688093750184E080938D
:1009E000790101C380917101909172010197B1F475
:1009F000809175018695806880937501809175015D
:100A000086958068809375018091750186958068D0
:100A10008093750185E080937901E5C28091710131
:100A200090917201029709F0DEC28091750186955E
:100A300080688093750180917501869580688093A8
:100A4000750180917501869580688093750180910C
:100A50007501869580688093750186E080937901A1
:100A6000C2C280916B01803F08F048C00E94B31061
:100A700023E030E0B9010E94151090937201809339
:100A800071018091710190917201892B69F48091BB
:100A90007501882F90E0880F991F81608093750100
:100AA00082E080937901A1C28091710190917201DD
:100AB0000197B1F480917501882F90E0880F991FFC
:100AC00081608093750180917501882F90E0880F77
:100AD000991F81608093750181E08093790185C2BF
:100AE0008091710190917201029709F07EC287ECAA
:100AF0008093750183E08093790177C280916B01C7
:100B0000803F08F472C20E94B31023E030E0B901C4
:100B10000E94151090937201809371018091710170
:100B200090917201892B51F48091750186958068AE
:100B30008093750184E08093790157C2809171019F
:100B400090917201019781F480917501869580687A
:100B500080937501809175018695806880937501F9
:100B600085E08093790141C2809171019091720179
:100B7000029709F03AC2809175018695806880934A
:100B800075018091750186958068809375018091CB
:100B90007501869580688093750186E08093790160
:100BA00024C280916B01803F08F060C00E94B310A6
:100BB00023E030E0B9010E941510909372018093F8
:100BC00071018091710190917201892B69F480917A
:100BD0007501882F90E0880F991F816080937501BF
:100BE00083E08093790103C2809171019091720139
:100BF0000197B1F480917501882F90E0880F991FBB
:100C000081608093750180917501882F90E0880F35
:100C1000991F81608093750182E080937901E7C11B
:100C20008091710190917201029709F0E0C1809169
:100C30007501882F90E0880F991F8160809375015E
:100C400080917501882F90E0880F991F81608093B3
:100C5000750180917501882F90E0880F991F816040
:100C60008093750181E080937901C1C180916B010E
:100C7000803F08F4BCC10E94B31023E030E0B9010A
:100C80000E941510909372018093710180917101FF
:100C900090917201892B39F483EE8093750184E081
:100CA00080937901A4C180917101909172010197A3
:100CB00051F480917501869580688093750185E077
:100CC0008093790194C18091710190917201029792
:100CD00009F08DC1809175018695806880937501BA
:100CE00080917501869580688093750186E0809378
:100CF00079017DC180916B01803F08F072C00E9434
:100D0000B31023E030E0B9010E94151090937201F6
:100D1000809371018091710190917201892BB1F4DE
:100D200080917501882F90E0880F991F81608093D2
:100D3000750180917501882F90E0880F991F81605F
:100D40008093750183E08093790153C18091710193
:100D5000909172010197F9F480917501882F90E0CC
:100D6000880F991F81608093750180917501882F8C
:100D700090E0880F991F81608093750180917501C3
:100D8000882F90E0880F991F81608093750182E021
:100D9000809379012EC18091710190917201029727
:100DA00009F027C180917501882F90E0880F991F65
:100DB00081608093750180917501882F90E0880F84
:100DC000991F81608093750180917501882F90E053
:100DD000880F991F81608093750181E0809379016C
:100DE00008C180916B01803F08F403C10E94B310D9
:100DF00081709078992324F401978E6F9F6F0196EC
:100E000090937201809371018091710190917201B0
:100E1000892B39F481EF8093750185E08093790106
:100E2000E8C08091710190917201019709F0E1C0D1
:100E300080917501869580688093750186E0809326
:100E40007901D7C080916B01803F08F096C00E9465
:100E5000B31023E030E0B9010E94151090937201A5
:100E6000809371018091710190917201892BF9F445
:100E700080917501882F90E0880F991F8160809381
:100E8000750180917501882F90E0880F991F81600E
:100E90008093750180917501882F90E0880F991FCC
:100EA00081608093750183E080937901A4C0809173
:100EB000710190917201019741F580917501882F20
:100EC00090E0880F991F8160809375018091750172
:100ED000882F90E0880F991F816080937501809121
:100EE0007501882F90E0880F991F816080937501AC
:100EF00080917501882F90E0880F991F8160809301
:100F0000750182E08093790176C0809171019091A2
:100F10007201029709F06FC080917501882F90E0EF
:100F2000880F991F81608093750180917501882FCA
:100F300090E0880F991F8160809375018091750101
:100F4000882F90E0880F991F8160809375018091B0
:100F50007501882F90E0880F991F8160809375013B
:100F600080917501882F90E0880F991F8160809390
:100F7000750181E0809379013EC080916B01803FD3
:100F8000D0F10E94B31081709078992324F40197D6
:100F90008E6F9F6F01969093720180937101809183
:100FA000710190917201892B69F480917501882FEC
:100FB00090E0880F991F81608093750185E0809390
:100FC000790119C08091710190917201019799F492
:100FD00088EF8093750186E0809379010CC0000052
:100FE0000BC0000009C0000007C0000005C00000E1
:100FF00003C0000001C0000089819A810F900F900A
:10100000DF91CF910895CF93DF9300D0CDB7DEB7B6
:101010009A83898389819A81092E000CAA0BBB0BC4
:1010200040E050E028E030E0841B950B281739079A
:1010300008F468C2845A9F4FFC010C944B1081E065
:1010400090E09A8389836CC280917801803409F0A2
:10105000EFC080917A01813049F480916B018F3724
:1010600029F482E090E09A838983DBC180917A0140
:10107000813049F480916B018F3B29F483E090E04B
:101080009A838983CEC180917A01813049F480911D
:101090006B018F3D29F484E090E09A838983C1C17C
:1010A00080917A01823049F480916B018F3B29F461
:1010B00082E090E09A838983B4C180917A01823082
:1010C00049F480916B018F3D29F483E090E09A838D
:1010D0008983A7C180917A01823049F480916B01A4
:1010E0008F3E29F484E090E09A8389839AC18091AD
:1010F0007A01833049F480916B018F3D29F482E0BD
:1011000090E09A8389838DC180917A01833049F47C
:1011100080916B018F3E29F483E090E09A8389836C
:1011200080C180917A01833049F480916B01873FBF
:1011300029F484E090E09A83898373C180917A01D5
:10114000843049F480916B018F3E29F482E090E075
:101150009A83898366C180917A01843049F48091B1
:101160006B01873F29F483E090E09A83898359C11A
:1011700080917A01843049F480916B018B3F29F48E
:1011800084E090E09A8389834CC180917A01853014
:1011900049F480916B01873F29F482E090E09A83C3
:1011A00089833FC180917A01853049F480916B0138
:1011B0008B3F29F483E090E09A83898332C1809148
:1011C0007A01853049F480916B018D3F29F484E0E8
:1011D00090E09A83898325C180917A01863049F411
:1011E00080916B018B3F29F482E090E09A838983A0
:1011F00018C180917A01863049F480916B018D3F4E
:1012000029F483E090E09A8389830BC180917A016D
:10121000863049F480916B018E3F29F484E090E0A0
:101220009A838983FEC088E090E09A83898378C19D
:1012300080917801823009F0EFC08091790181308E
:1012400049F480916B018F3729F485E090E09A830F
:101250008983E7C080917901813049F480916B01E5
:101260008F3B29F486E090E09A838983DAC08091ED
:101270007901813049F480916B018F3D29F487E039
:1012800090E09A838983CDC080917901823049F4BE
:1012900080916B018F3B29F485E090E09A838983EC
:1012A000C0C080917901823049F480916B018F3DFB
:1012B00029F486E090E09A838983B3C08091790114
:1012C000823049F480916B018F3E29F487E090E0F1
:1012D0009A838983A6C080917901833049F48091F3
:1012E0006B018F3D29F485E090E09A83898399C052
:1012F00080917901833049F480916B018F3E29F40C
:1013000086E090E09A8389838CC080917901833054
:1013100049F480916B01873F29F487E090E09A833C
:1013200089837FC080917901843049F480916B0179
:101330008F3E29F485E090E09A83898372C0809182
:101340007901843049F480916B01873F29F486E06C
:1013500090E09A83898365C080917901843049F453
:1013600080916B018B3F29F487E090E09A83898319
:1013700058C080917901853049F480916B01873F95
:1013800029F485E090E09A8389834BC080917901AC
:10139000853049F480916B018B3F29F486E090E021
:1013A0009A8389833EC080917901853049F4809188
:1013B0006B018D3F29F487E090E09A83898331C0E7
:1013C00080917901863049F480916B018B3F29F43B
:1013D00085E090E09A83898324C0809179018630EA
:1013E00049F480916B018D3F29F486E090E09A8367
:1013F000898317C080917901863049F480916B010F
:101400008E3F29F487E090E09A8389830AC088E0C0
:1014100090E09A83898384C088E090E09A838983EE
:101420007FC07EC080916B018E3F49F48091700136
:10143000823029F084E090E09A83898366C08091AD
:101440007001823009F061C081E090E09A83898365
:101450005CC080916B018F3749F4809170018230BC
:1014600029F082E090E09A83898351C080917001D5
:10147000823009F04CC081E090E09A83898347C0B4
:1014800080917001823009F044C081E090E09A833D
:1014900089833FC080916B018E3F49F48091700138
:1014A000803429F087E090E09A83898334C080916A
:1014B0007001803481F581E090E09A8389832BC0AC
:1014C00080916B018F3749F480917001803429F04D
:1014D00085E090E09A83898320C0809170018034F8
:1014E000E1F481E090E09A83898317C080917001D4
:1014F0008034A9F481E090E09A83898310C01A8235
:1015000019820EC01A8219820BC0000009C00000A7
:1015100007C0000005C0000003C0000001C00000BB
:1015200089819A81092E000CAA0BBB0B40E050E088
:1015300028E030E0841B950B2817390708F45DC0BC
:101540008B599F4FFC010C944B1080E480937001E9
:101550008FEE80936B0180917001809378014EC073
:10156000809170018093780149C0809170018695C7
:101570008093700180916B018695806880936B01E8
:101580003DC08091700186958093700180916B01C0
:10159000882F90E0880F991F816080936B012EC087
:1015A0008091700186958093700128C080917001B0
:1015B000880F8093700180916B018695806880937D
:1015C0006B011CC080917001880F80937001809125
:1015D0006B01882F90E0880F991F816080936B01C9
:1015E0000DC080917001880F8093700107C08091B9
:1015F0006F018F5F80936F0101C0000089819A8124
:101600000F900F90DF91CF910895CF93DF9300D08B
:10161000CDB7DEB79A83898389819A81823091051B
:1016200039F1833091052CF4009771F00197B1F0F6
:101630005DC08430910509F444C0843091059CF16B
:10164000059709F44CC052C080916C01823009F0BA
:1016500050C081E090E09A8389834BC080916C01F7
:10166000882309F048C082E090E09A83898343C0D0
:1016700080916C01843029F483E090E09A8389831F
:101680003CC080916C01883029F484E090E09A831A
:10169000898333C080916C01823079F585E090E0D8
:1016A0009A8389832AC080916C01883029F484E070
:1016B00090E09A83898324C082E090E09A838983B2
:1016C0001FC080916C01843029F483E090E09A83FC
:1016D000898316C082E090E09A83898311C080914B
:1016E0006C01882361F41A82198209C01A82198256
:1016F00007C0000005C0000003C0000001C00000DA
:1017000089819A818230910509F498C083309105CE
:1017100034F4009709F494C0019761F096C08430C6
:10172000910509F44CC0843091058CF0059709F4BB
:101730007DC08BC081E08093740181E080936A0159
:1017400087EC80936E0183E0809379017EC0809165
:101750006E01883F39F481EF80936E0185E08093BC
:10176000790170C080916E01813F39F483EE8093DE
:101770006E0184E08093790165C080916E01833EA3
:1017800039F487EC80936E0183E0809379015AC02D
:1017900080916E01873C39F48FE880936E0182E07E
:1017A000809379014FC080916E018F3809F04AC053
:1017B0008FE180936E0181E08093790143C0809135
:1017C0006E018F3139F48FE880936E0182E080934F
:1017D00079013AC080916E018F3839F487EC80939B
:1017E0006E0183E0809379012FC080916E01873C68
:1017F00039F483EE80936E0184E08093790124C0F4
:1018000080916E01833E39F481EF80936E0185E013
:101810008093790119C080916E01813FA9F488EF0E
:1018200080936E0186E0809379010EC0109274015E
:1018300010926A018FEF80936E0107C0000005C00F
:10184000000003C0000001C0000089819A810F9050
:101850000F90DF91CF910895CF93DF9300D0CDB754
:10186000DEB79A83898389819A818130910551F00D
:101870008230910561F0892B69F481E090E09A83D0
:1018800089830BC082E090E09A83898306C01A8224
:10189000198203C01A821982000089819A818130DD
:1018A000910569F08230910589F0892B09F015C006
:1018B00086E680937B018FE9809377010EC08CE3ED
:1018C00080937B018BEF8093770107C088E1809341
:1018D0007B018DEF80937701000089819A810F90C1
:1018E0000F90DF91CF910895CF93DF9300D0CDB7C4
:1018F000DEB79A83898389819A818230910559F173
:10190000833091052CF4009771F00197D1F06CC0F1
:101910008430910509F44CC08430910564F1059739
:1019200009F452C061C080916C01882329F0809134
:101930006F01833008F45BC081E090E09A83898373
:1019400056C080917601882309F053C082E090E070
:101950009A8389834EC080916C01813021F08091FF
:101960006F01833018F01A82198246C083E090E03C
:101970009A83898341C080917401882329F484E08B
:1019800090E09A83898337C080917401882329F07D
:1019900085E090E09A8389832EC080916C0181302C
:1019A00021F080916F01833030F11A82198223C0B7
:1019B00080916C01813019F41A8219821DC082E075
:1019C00090E09A83898318C080916C01813021F066
:1019D00080916F01833018F01A8219820DC082E065
:1019E00090E09A83898308C01A82198205C000009A
:1019F00003C0000001C0000089819A8182309105F6
:101A000009F443C0833091052CF4009779F00197D5
:101A100051F16FC08430910509F451C084309105B3
:101A20000CF440C0059709F457C063C010926F01D1
:101A300087EC80937C0183E080937A0183E080933C
:101A4000790187EC8093750187EC80936E01109289
:101A5000740180E8809370018FEE80936B0188E5BC
:101A60008093760146C088E290E020917B01FC01E2
:101A700020838BE290E020917701FC01208380910C
:101A8000760181508093760134C088E290E0209105
:101A90007301FC0120838BE290E020917C01FC012A
:101AA000208327C088E290E020917001FC01208310
:101AB0008BE290E020916B01FC0120831AC088E248
:101AC00090E020916D01FC0120838BE290E0209159
:101AD0007501FC0120830DC088E290E020916A012D
:101AE000FC0120838BE290E020916E01FC012083B9
:101AF000000089819A810F900F90DF91CF91089516
:101B00002F923F92CF93DF93CDB7DEB72E970FB6CC
:101B1000F894DEBF0FBECDBF6D837E838F83988721
:101B200029873A874B875C873E862D868D819E81EB
:101B3000AF81B88529853A854B855C85BC01CD018F
:101B40000E942910DC01CB0189839A83AB83BC837B
:101B500089819A81AB81BC81892B8A2B8B2B29F4BB
:101B600089859A85AB85BC8511C089859A85AB85A9
:101B7000BC858D839E83AF83B88789819A81AB8131
:101B8000BC8189879A87AB87BC87D0CFBC01CD0148
:101B90002E960FB6F894DEBF0FBECDBFDF91CF916A
:101BA0003F902F9008952F923F920F931F93CF93C2
:101BB000DF93CDB7DEB765970FB6F894DEBF0FBEE3
:101BC000CDBF81E290E0FC01108282E290E02FEF35
:101BD000FC01208384E290E0FC01108285E290E029
:101BE0002FEFFC01208387E290E02FEFFC012083A0
:101BF00088E290E0FC0110828AE290E02FEFFC0185
:101C000020838BE290E0FC01108210926C010E9414
:101C1000080280E090E00E940210DC01CB010E94EB
:101C2000B7108CE0E6E1F1E0DE011A9601900D922A
:101C30008A95E1F786E090E098878F838FEF898718
:101C40008985809328018FE090E0A0E0B0E0809348
:101C5000290190932A01A0932B01B0932C0180912C
:101C6000290190912A01A0912B01B0912C01809320
:101C70002D0190932E01A0932F01B093300189E1A3
:101C800092E09093320180933101898580933301F2
:101C90008FE090E0A0E0B0E08093340190933501B4
:101CA000A0933601B09337018091340190913501B2
:101CB000A0913601B091370180933801909339019A
:101CC000A0933A01B0933B018CE193E090933D01E6
:101CD00080933C01898580933E018FE090E0A0E0F5
:101CE000B0E080933F0190934001A0934101B093F5
:101CF000420180913F0190914001A0914101B0913A
:101D000042018093430190934401A0934501B09315
:101D1000460183E098E090934801809347018985CC
:101D2000809349018FE090E0A0E0B0E080934A0109
:101D300090934B01A0934C01B0934D0180914A01C7
:101D400090914B01A0914C01B0914D0180934E01B7
:101D500090934F01A0935001B093510185E09BE017
:101D6000909353018093520189858093540181E0BF
:101D700090E0A0E0B0E08093550190935601A093CD
:101D80005701B09358018091550190915601A0914F
:101D90005701B09158018093590190935A01A09333
:101DA0005B01B0935C018CE29CE090935E018093B8
:101DB0005D01898580935F0181E090E0A0E0B0E063
:101DC0008093600190936101A0936201B0936301DD
:101DD0008091600190916101A0916201B0916301D5
:101DE0008093640190936501A0936601B0936701AD
:101DF00084E79CE090936901809368018A859B85C4
:101E0000FC0181819281A381B4818B839C83AD830A
:101E1000BE8381E090E09A83898329C089819A8179
:101E2000880F991F9E012F5F3F4F820F931F0996C6
:101E3000FC0180819181FC012181328143815481A7
:101E40008B819C81AD81BE81BE01665F7F4F1B018E
:101E5000BC01CD010E94800DDC01CB018B839C83F2
:101E6000AD83BE8389819A8101969A838983298172
:101E70003A818F8198852817390780F28B819C8160
:101E8000AD81BE81BC01CD010E948F000E94BD00CA
:101E900083E290E0FC018081809580936C011A823E
:101EA0001982A0C089819A81880F991F9E012F5F96
:101EB0003F4F820F931F0996FC0180819181FC01A5
:101EC000258136814781508589819A81880F991FA4
:101ED000BE016F5F7F4F860F971F0996FC018081BF
:101EE0009181FC0181819281A381B48128173907F6
:101EF0004A075B0709F045C089819A81880F991FBD
:101F00009E012F5F3F4F820F931F0996FC010081B6
:101F1000118189819A81880F991F9E012F5F3F4F00
:101F2000820F931F0996FC0180819181FC0121851C
:101F3000328589819A81880F991FAE014F5F5F4F6B
:101F4000840F951F0996FC0180819181FC0180819D
:101F5000082E000C990BF9010995F80180838981FD
:101F60009A81880F991F9E012F5F3F4F820F931F09
:101F70000996FC0180819181FC01158216821782ED
:101F8000108689819A81880F991F9E012F5F3F4F8C
:101F9000820F931F0996FC016081718189819A816A
:101FA000880F991F9E012F5F3F4F820F931F099645
:101FB000FC0180819181FC0125813681478150851A
:101FC0008B819C81AD81BE81820F931FA41FB51FA1
:101FD000FB0185839683A783B08789819A810196C7
:101FE0009A83898329813A818F81988528173907B7
:101FF00008F458CF0000809122018823E1F3109269
:10200000220146CFFC010FB6F89460917D017091DA
:102010007E0180917F01909180010FBE309721F069
:102020006083718382839383089597FB072E16F450
:10203000009407D077FD09D00E94541007FC05D00A
:102040003EF4909581959F4F0895709561957F4FCF
:102050000895A1E21A2EAA1BBB1BFD010DC0AA1FE9
:10206000BB1FEE1FFF1FA217B307E407F50720F001
:10207000A21BB30BE40BF50B661F771F881F991F7C
:102080001A9469F760957095809590959B01AC01C5
:10209000BD01CF010895EE0FFF1F0024001C0BBEF1
:1020A0000790F691E02D0994AA1BBB1B51E107C0D4
:1020B000AA1FBB1FA617B70710F0A61BB70B881FD8
:1020C000991F5A95A9F780959095BC01CD01089567
:1020D0008F929F92AF92BF92CF92DF92EF92FF9238
:1020E000CF93DF93EC01688179818A819B816115AF
:1020F00071058105910521F464E279ED8BE597E0A6
:102100002DE133EF41E050E00E94C21049015A0135
:102110009B01AC01A7EAB1E40E94E1106B017C01D4
:10212000ACEEB4EFA50194010E94EF10DC01CB01ED
:102130008C0D9D1DAE1DBF1DB7FF03C00197A109EA
:10214000B04888839983AA83BB839F77DF91CF911F
:10215000FF90EF90DF90CF90BF90AF909F908F90C7
:1021600008950C94681082E191E00C946810A0E04E
:10217000B0E08093120190931301A0931401B093E7
:1021800015010895052E97FB1EF400940E94D910A6
:1021900057FD07D00E94291007FC03D04EF40C9481
:1021A000D91050954095309521953F4F4F4F5F4F37
:1021B000089590958095709561957F4F8F4F9F4FB3
:1021C00008950E94F410A59F900DB49F900DA49FB8
:1021D000800D911D11240895B7FF0C94E1100E9409
:1021E000E110821B930B0895A29FB001B39FC00121
:1021F000A39F700D811D1124911DB29F700D811D33
:0A2200001124911D0895F894FFCFFA
:10220A00010000000000000200000000BA01000006
:10221A00000001000000280133013E014901540178
:02222A005F0152
:00000001FF
