:100000000C9468000C9487000C9487000C94870073
:100010000C9487000C9487000C9487000C94870044
:100020000C9487000C9487000C9487000C94870034
:100030000C9487000C9405010C9487000C948700A5
:100040000C9487000C9487000C9487000C94870014
:100050000C9487000C9487000C9487000C94870004
:100060000C9487000C9487000C9487000C948700F4
:100070000C9487000C9487000C9487000C948700E4
:100080000C9487000C9487000C9487003E03430374
:100090007A0384038D0396039F03A803B103E1034E
:1000A0009F06ED036804DB045605C105330696067A
:1000B0005A0A640A6E0A890A8E0A930A9C0AA50AD9
:1000C000CC0ACF0A330BD90A010B330B330B290BA4
:1000D00011241FBECFEFD0E4DEBFCDBF11E0A0E002
:1000E000B1E0E6EFFCE100E00BBF02C007900D922B
:1000F000AE31B107D9F721E0AEE1B1E001C01D9208
:10010000A336B207E1F70E949E0B0C94790E0C9473
:100110000000CF93DF9300D000D0CDB7DEB7698366
:100120007A838B839C8389819A81AB81BC81809304
:10013000000190930101A0930201B093030180910B
:10014000000190910101A0910201B09103018093FF
:100150001F0190932001A0932101B0932201000080
:100160000F900F900F900F90DF91CF910895CF9344
:10017000DF93CDB7DEB781E890E02BE0FC01208370
:1001800088E890E02DE730E0FC01318320838FE6A2
:1001900090E022E0FC01208384E890E0FC011182E1
:1001A00010828091000190910101A0910201B09113
:1001B000030180931F0190932001A0932101B0932C
:1001C00022018FE590E02FE530E0F90120812068E1
:1001D000FC0120830000DF91CF910895CF93DF933E
:1001E000CDB7DEB781E890E0FC0110820000DF911E
:1001F000CF910895CF93DF93CDB7DEB781E08093A1
:100200001E010000DF91CF9108951F920F92009080
:100210005F000F92112400905B000F922F933F9389
:100220004F935F936F937F938F939F93AF93BF93FE
:10023000EF93FF93CF93DF93CDB7DEB780911F018C
:1002400090912001A0912101B09122010197A10973
:10025000B10980931F0190932001A0932101B093D5
:10026000220180911F0190912001A0912101B09164
:100270002201892B8A2B8B2B91F40E94FA0080910A
:10028000000190910101A0910201B09103018093BE
:100290001F0190932001A0932101B093220100003F
:1002A000DF91CF91FF91EF91BF91AF919F918F918E
:1002B0007F916F915F914F913F912F910F9000929D
:1002C0005B000F9000925F000F901F901895CF93E6
:1002D000DF93CDB7DEB72C970FB6F894DEBF0FBE15
:1002E000CDBF6D837E838F83988729873A874B871D
:1002F0005C878D819E81AF81B88529853A854B8544
:100300005C85BC01CD010E949F0DDC01CB0189837E
:100310009A83AB83BC8389819A81AB81BC81892B11
:100320008A2B8B2B29F489859A85AB85BC8511C0D6
:1003300089859A85AB85BC858D839E83AF83B8877D
:1003400089819A81AB81BC8189879A87AB87BC8779
:10035000D0CFBC01CD012C960FB6F894DEBF0FBEF6
:10036000CDBFDF91CF910895CF93DF9300D01F923F
:10037000CDB7DEB789837B836A8389818A3031F484
:100380008A819B81BC018DE00E94B40180EC90E0E9
:10039000FC018081882F90E080729927892BB1F32E
:1003A00086EC90E02981FC01208380E090E00F90B2
:1003B0000F900F90DF91CF910895CF93DF931F920D
:1003C000CDB7DEB789838CE790E02981283028F00B
:1003D0002CE730E0F901208101C02981FC01208354
:1003E0001092230106C00000809123018F5F80934B
:1003F0002301809123018F30B0F300000F90DF9133
:10040000CF910895CF93DF93CDB7DEB78AE790E021
:100410002AE730E0F9012081206EFC0120830000F2
:10042000DF91CF910895CF93DF9300D0CDB7DEB7A2
:100430009A83898381E00E94DD0189819A818230DB
:100440009105C1F0833091052CF4009749F0019794
:1004500061F04EC08330910539F10497B9F148C07D
:1004600081E090E09A83898347C082E090E09A839C
:10047000898342C088E790E0FC01808191818536C4
:10048000924028F083E090E09A83898334C088E723
:1004900090E0FC01808191818C39914060F584E08D
:1004A00090E09A83898327C088E790E0FC018081EF
:1004B00091818C39914028F484E090E09A8389837B
:1004C0001BC082E090E09A83898316C088E790E0A1
:1004D000FC01808191818536924028F083E090E094
:1004E0009A83898309C082E090E09A83898304C05B
:1004F0001A82198201C0000089819A818230910597
:1005000009F486C08330910534F4009709F482C061
:10051000019741F084C08330910559F0049709F4A4
:1005200040C07DC080E88093570187EC80935E01D6
:1005300076C080915E01883F39F481EF80935E013F
:1005400085E080935D0168C080915E01813F39F450
:1005500083EE80935E0184E080935D015DC08091B5
:100560005E01833E39F487EC80935E0183E08093E3
:100570005D0152C080915E01873C39F48FE8809321
:100580005E0182E080935D0147C080915E018F38FB
:1005900009F042C08FE180935E0181E080935D01AC
:1005A0003BC080915E018F3139F48FE880935E010A
:1005B00082E080935D0132C080915E018F3839F412
:1005C00087EC80935E0183E080935D0127C080917A
:1005D0005E01873C39F483EE80935E0184E0809372
:1005E0005D011CC080915E01833E39F481EF8093F0
:1005F0005E0185E080935D0111C080915E01813FC5
:1006000069F488EF80935E0186E080935D0106C007
:10061000000005C0000003C0000001C0000088E227
:1006200090E020915701FC0120838BE290E0209123
:100630005E01FC01208389819A810F900F90DF91E8
:10064000CF910895CF93DF9300D0CDB7DEB79A83D3
:10065000898389819A81092E000CAA0BBB0B40E08B
:1006600050E028E030E0841B950B2817390708F488
:1006700081C08A5B9F4FFC010C94C10D81E090E02A
:100680009A83898389C080915C01813029F482E05A
:1006900090E09A83898371C080915C01823029F453
:1006A00083E090E09A83898368C080915C01833005
:1006B00029F484E090E09A8389835FC080915C0193
:1006C000843029F485E090E09A83898356C0809134
:1006D0005C01853029F486E090E09A8389834DC0DF
:1006E00080915C01863009F048C087E090E09A83F1
:1006F000898343C080915A01813009F040C088E06D
:1007000090E09A8389833BC080915A018130C9F57A
:1007100088E090E09A83898334C080915A018130C7
:1007200091F588E090E09A8389832DC080915A01E9
:10073000813059F588E090E09A83898326C08091C2
:100740005A01813021F588E090E09A8389831FC0A7
:1007500080915A018130E9F488E090E09A8389839E
:1007600018C080915A018823B1F481E090E09A8307
:10077000898311C01A8219820FC000000DC00000C9
:100780000BC0000009C0000007C0000005C0000049
:1007900003C0000001C0000089819A81092E000C6D
:1007A000AA0BBB0B40E050E028E030E0841B950B27
:1007B0002817390708F4C1C2815B9F4FFC010C94D4
:1007C000C10D10925A0183E080935C0187EC809305
:1007D000590181E080935301B5C280915501853064
:1007E00080F580915101883F60F10E94290E23E03D
:1007F00030E0B9010E948B0D8F5F8093560180918C
:100800005601813039F481E080935C0181EF80935F
:10081000590159C080915601823039F482E08093A9
:100820005C018FE8809359014EC08091560183305E
:1008300009F049C083E080935C0187EC8093590103
:1008400042C080915501853008F03EC08091510131
:10085000883FD0F50E94290E83709078992324F464
:1008600001978C6F9F6F01968F5F809356018091E7
:100870005601813039F483E080935C0187EC8093EA
:10088000590122C080915601823039F484E080936E
:100890005C0183EE8093590117C08091560183302B
:1008A00039F485E080935C0181EF809359010CC09D
:1008B00080915601843041F486E080935C0188EF9A
:1008C0008093590101C0000081E080935A013AC22F
:1008D00080915501853040F580915101883F20F18C
:1008E0000E94290E81709078992324F401978E6FCD
:1008F0009F6F01968F5F80935601809156018130E2
:1009000039F481E080935C018FE1809359014EC0FE
:1009100080915601823009F049C082E080935C01E9
:100920008FE88093590142C080915501853008F0CD
:100930003EC080915101883FD0F50E94290E8370FE
:100940009078992324F401978C6F9F6F01968F5FA5
:100950008093560180915601813039F483E0809371
:100960005C0187EC8093590122C08091560182304E
:1009700039F484E080935C0183EE8093590117C0C1
:1009800080915601833039F485E080935C0181EFDA
:10099000809359010CC080915601843041F486E067
:1009A00080935C0188EF8093590101C0000081E0D1
:1009B00080935A01C7C180915501853080F580919F
:1009C0005101883F60F10E94290E23E030E0B90117
:1009D0000E948B0D8F5F809356018091560181306C
:1009E00039F482E080935C018FE88093590159C00B
:1009F00080915601823039F481E080935C018FE16F
:100A0000809359014EC080915601833009F049C04E
:100A100083E080935C0187EC8093590142C0809110
:100A20005501853008F03EC080915101883FD0F5D6
:100A30000E94290E83709078992324F401978C6F7B
:100A40009F6F01968F5F8093560180915601813090
:100A500039F483E080935C0187EC8093590122C0D4
:100A600080915601823039F484E080935C0183EEFA
:100A70008093590117C080915601833039F485E085
:100A800080935C0181EF809359010CC080915601E5
:100A9000843041F486E080935C0188EF80935901B3
:100AA00001C0000081E080935A014CC18091550142
:100AB000853078F580915101883F58F10E94290EC8
:100AC00023E030E0B9010E948B0D8F5F80935601C7
:100AD00080915601813039F483E080935C0187EC8A
:100AE0008093590149C080915601823039F482E0E7
:100AF00080935C018FE8809359013EC0809156013C
:100B00008330D1F581E080935C018FE180935901BE
:100B100033C080915501853080F580915101883F27
:100B200060F50E94290E23E030E0B9010E948B0D90
:100B30008F5F8093560180915601813039F484E0B3
:100B400080935C0183EE8093590117C08091560118
:100B5000823039F485E080935C0181EF8093590104
:100B60000CC080915601833041F486E080935C0193
:100B700088EF8093590101C0000081E080935A0101
:100B8000E1C080915501853008F03DC08091510150
:100B9000883FC8F10E94290E83709078992324F42D
:100BA00001978C6F9F6F01968F5F809356018091A4
:100BB0005601813039F484E080935C0183EE8093A8
:100BC00059014CC080915601823039F483E0809302
:100BD0005C0187EC8093590141C0809156018330BC
:100BE00039F482E080935C018FE88093590136C02C
:100BF00080915601843091F581E080935C018FE112
:100C0000809359012BC080915501853040F580912A
:100C10005101883F20F50E94290E81709078992318
:100C200024F401978E6F9F6F01968F5F809356011A
:100C300080915601813039F485E080935C0181EF29
:100C4000809359010CC080915601823041F486E0B6
:100C500080935C0188EF8093590101C0000081E01E
:100C600080935A016FC080915101853078F5809151
:100C70005501883F58F10E94290E23E030E0B90168
:100C80000E948B0D8F5F80935601809156018130B9
:100C900039F483E080935C0187EC8093590141C073
:100CA00080915601823039F482E080935C018FE8B4
:100CB0008093590136C080915601833091F581E0CF
:100CC00080935C018FE1809359012BC08091510189
:100CD000853040F580915501883F20F50E94290E0E
:100CE00081709078992324F401978E6F9F6F0196FD
:100CF0008F5F8093560180915601813039F486E0F0
:100D000080935C0188EF809359010CC0809156015B
:100D1000823041F485E080935C0181EF809359013A
:100D200001C0000081E080935A010CC080915B01FA
:100D3000823039F410925A0104C0000003C0000050
:100D400001C000008BE290E020915901FC0120835A
:100D500088E290E020915301FC01208389819A81EF
:100D60000F900F90DF91CF910895CF93DF9300D034
:100D7000CDB7DEB79A83898389819A8182309105C4
:100D800009F47DC2833091052CF4009759F0019746
:100D900071F0D7C28330910509F4B9C2049709F400
:100DA00093C2CFC281E090E09A838983D4C28091BC
:100DB0005501803469F4809151018F3749F4809155
:100DC0005D01813029F484E090E09A83898356C2E2
:100DD00080915501803469F4809151018F3B49F431
:100DE00080915D01813029F483E090E09A838983CA
:100DF00045C280915501803469F4809151018F3D45
:100E000049F480915D01813029F484E090E09A8377
:100E1000898334C280915501803469F480915101F5
:100E20008F3B49F480915D01823029F484E090E0A9
:100E30009A83898323C280915501803469F480911B
:100E400051018F3D49F480915D01823029F483E0A6
:100E500090E09A83898312C280915501803469F4AD
:100E6000809151018F3E49F480915D01823029F4D7
:100E700084E090E09A83898301C280915501803497
:100E800069F4809151018F3D49F480915D01833077
:100E900029F484E090E09A838983F0C18091550120
:100EA000803469F4809151018F3E49F480915D0155
:100EB000833029F483E090E09A838983DFC18091B5
:100EC0005501803469F480915101873F49F4809144
:100ED0005D01833029F484E090E09A838983CEC158
:100EE00080915501803469F4809151018F3E49F41D
:100EF00080915D01843029F484E090E09A838983B5
:100F0000BDC180915501803469F480915101873FC2
:100F100049F480915D01843029F483E090E09A8364
:100F20008983ACC180915501803469F4809151016D
:100F30008B3F49F480915D01843029F484E090E096
:100F40009A8389839BC180915501803469F4809193
:100F50005101873F49F480915D01853029F484E097
:100F600090E09A8389838AC180915501803469F425
:100F7000809151018B3F49F480915D01853029F4C6
:100F800083E090E09A83898379C180915501803410
:100F900069F4809151018D3F49F480915D01853064
:100FA00029F484E090E09A83898368C18091550197
:100FB000803469F4809151018B3F49F480915D0147
:100FC000863029F484E090E09A83898357C1809128
:100FD0005501803469F4809151018D3F49F480912D
:100FE0005D01863029F483E090E09A83898346C1CD
:100FF00080915501803469F4809151018E3F49F40C
:1010000080915D01863029F484E090E09A838983A1
:1010100035C180915501823069F4809151018F373B
:1010200049F480915C01813029F484E090E09A8356
:10103000898324C180915501823069F480915101E6
:101040008F3B49F480915C01813029F483E090E08A
:101050009A83898313C180915501823069F480910C
:1010600051018F3D49F480915C01813029F484E085
:1010700090E09A83898302C180915501823069F49E
:10108000809151018F3B49F480915C01823029F4B9
:1010900084E090E09A838983F1C080915501823089
:1010A00069F4809151018F3D49F480915C01823057
:1010B00029F483E090E09A838983E0C08091550110
:1010C000823069F4809151018F3E49F480915C0136
:1010D000823029F484E090E09A838983CFC08091A4
:1010E0005501823069F4809151018F3D49F480911E
:1010F0005C01833029F484E090E09A838983BEC048
:1011000080915501823069F4809151018F3E49F4FC
:1011100080915C01833029F483E090E09A83898395
:10112000ADC080915501823069F480915101873FB3
:1011300049F480915C01833029F484E090E09A8343
:1011400089839CC080915501823069F4809151015E
:101150008F3E49F480915C01843029F484E090E072
:101160009A8389838BC080915501823069F4809184
:101170005101873F49F480915C01843029F483E078
:1011800090E09A8389837AC080915501823069F416
:10119000809151018B3F49F480915C01843029F4A6
:1011A00084E090E09A83898369C080915501823000
:1011B00069F480915101873F49F480915C01853049
:1011C00029F484E090E09A83898358C08091550186
:1011D000823069F4809151018B3F49F480915C0128
:1011E000853029F483E090E09A83898347C0809119
:1011F0005501823069F4809151018D3F49F480910D
:101200005C01853029F484E090E09A83898336C0BC
:1012100080915501823069F4809151018B3F49F4EE
:1012200080915C01863029F484E090E09A83898380
:1012300025C080915501823069F4809151018D3F24
:1012400049F480915C01863029F483E090E09A8330
:10125000898314C080915501823009F075C0809156
:1012600051018E3F09F070C080915C01863009F019
:101270006BC084E090E09A83898366C065C08091EA
:1012800051018E3F29F484E090E09A8389835EC007
:1012900080915B01823049F480915501803429F4BA
:1012A00081E090E09A83898351C080915B01803412
:1012B00009F04CC080915501823009F047C081E0AF
:1012C00090E09A83898342C0809151018F3729F43D
:1012D00082E090E09A8389833BC080915B018230F9
:1012E00049F480915501803429F481E090E09A839B
:1012F00089832EC080915B01803451F58091550126
:10130000823031F581E090E09A83898321C0809119
:101310005B01823049F480915501803429F481E0E9
:1013200090E09A83898316C080915B01803491F4A8
:1013300080915501823071F481E090E09A83898335
:1013400009C01A82198207C0000005C0000003C04E
:10135000000001C0000089819A8182309105D9F096
:10136000833091052CF4009751F0019779F073C008
:101370008330910509F456C0049771F16CC080E484
:10138000809355018FED8093510165C08091550187
:1013900080935B0160C080915B01803461F4809137
:1013A00055018695809355018091510186958068FD
:1013B000809351014BC080915B01823009F046C09F
:1013C00080915501880F8093550180915101869538
:1013D0008068809351013AC080915B01803479F438
:1013E0008091550186958093550180915101882FF8
:1013F00090E0880F991F81608093510129C08091EE
:101400005B01823029F580915501880F8093550149
:1014100080915101882F90E0880F991F81608093FF
:10142000510116C080915B01803431F480915501E7
:101430008695809355010EC080915B01823051F4F6
:1014400080915501880F8093550104C0000003C0AE
:10145000000001C000008BE290E020915101FC01EE
:10146000208388E290E020915501FC01208389814E
:101470009A810F900F90DF91CF910895CF93DF93D2
:1014800000D0CDB7DEB79A83898389819A81092EEE
:10149000000CAA0BBB0B40E050E027E030E0841BBF
:1014A000950B2817390708F462C0885A9F4FFC0132
:1014B0000C94C10D80915201803109F04DC081E042
:1014C00090E09A83898348C080915201882309F073
:1014D00045C082E090E09A83898340C080915201A8
:1014E000843029F483E090E09A83898339C0809125
:1014F0005201883029F484E090E09A83898330C0D7
:1015000080915201803161F587E090E09A83898370
:1015100027C085E090E09A83898329C086E090E027
:101520009A83898324C0809152018823D9F482E070
:1015300090E09A83898316C0809152018823A1F498
:1015400082E090E09A8389830FC0809152018823C2
:1015500069F41A8219820AC0000009C0000007C09D
:10156000000005C0000003C0000001C00000898128
:101570009A81092E000CAA0BBB0B40E050E027E03B
:1015800030E0841B950B2817390708F46AC0805A8D
:101590009F4FFC010C94C10D1092580169C081E06D
:1015A0008093580181E08093500187EC809354012F
:1015B0005FC080915401883F21F481EF80935401F2
:1015C00054C080915401813F21F483EE80935401F3
:1015D0004CC080915401833E21F487EC80935401E8
:1015E00044C080915401873C21F48FE880935401DA
:1015F0003CC0809154018F38C1F58FE18093540134
:1016000034C0809154018F3121F48FE880935401CC
:101610002EC0809154018F3821F487EC80935401BF
:1016200026C080915401873C21F483EE80935401BD
:101630001EC080915401833E21F481EF80935401B8
:1016400016C080915401813F91F488EF809354013A
:101650000EC0109258018FEF8093540110925001E8
:1016600007C0000005C0000003C0000001C000006A
:101670008BE290E020915401FC01208388E290E00D
:1016800020915001FC01208389819A810F900F9055
:10169000DF91CF9108952F923F92CF93DF93CDB7F3
:1016A000DEB72E970FB6F894DEBF0FBECDBF6D83A9
:1016B0007E838F83988729873A874B875C873E860E
:1016C0002D868D819E81AF81B88529853A854B8590
:1016D0005C85BC01CD010E949F0DDC01CB0189839B
:1016E0009A83AB83BC8389819A81AB81BC81892B2E
:1016F0008A2B8B2B29F489859A85AB85BC8511C0F3
:1017000089859A85AB85BC858D839E83AF83B88799
:1017100089819A81AB81BC8189879A87AB87BC8795
:10172000D0CFBC01CD012E960FB6F894DEBF0FBE10
:10173000CDBFDF91CF913F902F9008952F923F9290
:101740000F931F93CF93DF93CDB7DEB761970FB69B
:10175000F894DEBF0FBECDBF81E290E0FC011082A5
:1017600082E290E02FEFFC01208387E290E02FEFF0
:10177000FC01208388E290E0FC0110828AE290E084
:101780002FEFFC0120838BE290E0FC01108280E2CD
:1017900090E0FC0180818095809352010E940202BA
:1017A00080E090E00E94780DDC01CB010E942D0EBC
:1017B00088E0E6E1F1E0DE011A9601900D928A954B
:1017C000E1F784E090E098878F838FEF89878985A0
:1017D0008093240181E090E0A0E0B0E080932501B7
:1017E00090932601A0932701B093280180912501B1
:1017F00090912601A0912701B091280180932901A1
:1018000090932A01A0932B01B0932C0183E192E0E5
:1018100090932E0180932D01898580932F0181E083
:1018200090E0A0E0B0E08093300190933101A0936C
:101830003201B09333018091300190913101A09138
:101840003201B09133018093340190933501A0931C
:101850003601B093370182E293E09093390180938F
:101860003801898580933A0181E090E0A0E0B0E002
:1018700080933B0190933C01A0933D01B0933E01C6
:1018800080913B0190913C01A0913D01B0913E01BE
:1018900080933F0190934001A0934101B093420196
:1018A00085EB96E090934401809343018985809372
:1018B000450181E090E0A0E0B0E080934601909384
:1018C0004701A0934801B09349018091460190914E
:1018D0004701A0914801B091490180934A0190933A
:1018E0004B01A0934C01B0934D018EE39AE090938D
:1018F0004F0180934E018A859B85FC0181819281F5
:10190000A381B4818B839C83AD83BE8381E090E00F
:101910009A83898329C089819A81880F991F9E01A2
:101920002F5F3F4F820F931F0996FC0180819181A9
:10193000FC0121813281438154818B819C81AD8165
:10194000BE81BE01665F7F4F1B01BC01CD010E94BD
:101950004B0BDC01CB018B839C83AD83BE838981E0
:101960009A8101969A83898329813A818F8198850A
:101970002817390780F28B819C81AD81BE81BC0123
:10198000CD010E9489000E94B7001A821982A0C06E
:1019900089819A81880F991F9E012F5F3F4F820F87
:1019A000931F0996FC0180819181FC01258136817C
:1019B0004781508589819A81880F991FBE016F5F89
:1019C0007F4F860F971F0996FC0180819181FC0152
:1019D00081819281A381B481281739074A075B0767
:1019E00009F045C089819A81880F991F9E012F5F58
:1019F0003F4F820F931F0996FC010081118189815D
:101A00009A81880F991F9E012F5F3F4F820F931F6E
:101A10000996FC0180819181FC01218532858981B3
:101A20009A81880F991FAE014F5F5F4F840F951FFA
:101A30000996FC0180819181FC018081082E000CB7
:101A4000990BF9010995F801808389819A81880FA2
:101A5000991F9E012F5F3F4F820F931F0996FC0134
:101A600080819181FC0115821682178210868981FE
:101A70009A81880F991F9E012F5F3F4F820F931FFE
:101A80000996FC016081718189819A81880F991F73
:101A90009E012F5F3F4F820F931F0996FC018081AB
:101AA0009181FC0125813681478150858B819C8104
:101AB000AD81BE81820F931FA41FB51FFB018583DB
:101AC0009683A783B08789819A8101969A838983B7
:101AD00029813A818F8198852817390708F458CFD2
:101AE000000080911E018823E1F310921E014DCF6A
:101AF000FC010FB6F89460915F01709160018091D4
:101B00006101909162010FBE309721F06083718373
:101B100082839383089597FB072E16F4009407D0D1
:101B200077FD09D00E94CA0D07FC05D03EF49095C0
:101B300081959F4F0895709561957F4F0895A1E21B
:101B40001A2EAA1BBB1BFD010DC0AA1FBB1FEE1F37
:101B5000FF1FA217B307E407F50720F0A21BB30B82
:101B6000E40BF50B661F771F881F991F1A9469F7FE
:101B700060957095809590959B01AC01BD01CF015A
:101B80000895EE0FFF1F0024001C0BBE0790F69176
:101B9000E02D0994AA1BBB1B51E107C0AA1FBB1F64
:101BA000A617B70710F0A61BB70B881F991F5A95E9
:101BB000A9F780959095BC01CD0108958F929F92D1
:101BC000AF92BF92CF92DF92EF92FF92CF93DF93CB
:101BD000EC01688179818A819B816115710581059C
:101BE000910521F464E279ED8BE597E02DE133EF87
:101BF00041E050E00E94380E49015A019B01AC01BE
:101C0000A7EAB1E40E94570E6B017C01ACEEB4EF81
:101C1000A50194010E94650EDC01CB018C0D9D1D78
:101C2000AE1DBF1DB7FF03C00197A109B04888834F
:101C30009983AA83BB839F77DF91CF91FF90EF9029
:101C4000DF90CF90BF90AF909F908F9008950C94AD
:101C5000DE0D82E191E00C94DE0DA0E0B0E0809317
:101C6000120190931301A0931401B09315010895EC
:101C7000052E97FB1EF400940E944F0E57FD07D0CF
:101C80000E949F0D07FC03D04EF40C944F0E50950C
:101C90004095309521953F4F4F4F5F4F0895909558
:101CA0008095709561957F4F8F4F9F4F08950E944B
:101CB0006A0EA59F900DB49F900DA49F800D911D5D
:101CC00011240895B7FF0C94570E0E94570E821BE3
:101CD000930B0895A29FB001B39FC001A39F700D05
:101CE000811D1124911DB29F700D811D1124911D24
:061CF0000895F894FFCFF7
:101CF600010000000000000200000000B401000026
:0E1D060000000100000024012F013A014501F8
:00000001FF
