:100000000C9456000C9475000C9475000C947500BB
:100010000C9475000C9475000C9475000C9475008C
:100020000C9475000C9475000C9475000C9475007C
:100030000C9475000C94F3000C9475000C947500EE
:100040000C9475000C9475000C9475000C9475005C
:100050000C9475000C9475000C9475000C9475004C
:100060000C9475000C9475000C9475000C9475003C
:100070000C9475000C9475000C9475000C9475002C
:100080000C9475000C9475000C947500EE08F8083B
:1000900002091D0922092709300939096009630984
:1000A000C7096D099509C709C709BD0911241FBEF4
:1000B000CFEFD0E4DEBFCDBF11E0A0E0B1E0EAECCD
:1000C000F9E100E00BBF02C007900D92A032B1072A
:1000D000D9F721E0A0E2B1E001C01D92A336B2073A
:1000E000E1F70E94320A0C94E30C0C940000CF93C9
:1000F000DF9300D000D0CDB7DEB769837A838B83DE
:100100009C8389819A81AB81BC818093000190930B
:100110000101A0930201B09303018091000190912D
:100120000101A0910201B0910301809321019093FC
:100130002201A0932301B093240100000F900F909F
:100140000F900F90DF91CF910895CF93DF93CDB7AC
:10015000DEB781E890E02BE0FC01208388E890E0A6
:100160002DE730E0FC01318320838FE690E022E030
:10017000FC01208384E890E0FC01118210828091D0
:10018000000190910101A0910201B09103018093BF
:10019000210190932201A0932301B09324018FE5C4
:1001A00090E02FE530E0F90120812068FC012083F8
:1001B0000000DF91CF910895CF93DF93CDB7DEB7E5
:1001C00081E890E0FC0110820000DF91CF9108955A
:1001D000CF93DF93CDB7DEB781E08093200100009D
:1001E000DF91CF9108951F920F9200905F000F92C0
:1001F000112400905B000F922F933F934F935F93D6
:100200006F937F938F939F93AF93BF93EF93FF93DE
:10021000CF93DF93CDB7DEB780912101909122017A
:10022000A0912301B09124010197A109B109809304
:10023000210190932201A0932301B0932401809186
:10024000210190912201A0912301B0912401892BD9
:100250008A2B8B2B91F40E94E800809100019091F1
:100260000101A0910201B0910301809321019093BB
:100270002201A0932301B09324010000DF91CF91CC
:10028000FF91EF91BF91AF919F918F917F916F916E
:100290005F914F913F912F910F9000925B000F90D3
:1002A00000925F000F901F901895CF93DF93CDB70A
:1002B000DEB72C970FB6F894DEBF0FBECDBF6D83AF
:1002C0007E838F83988729873A874B875C878D81C8
:1002D0009E81AF81B88529853A854B855C85BC01B7
:1002E000CD010E941D0CDC01CB0189839A83AB8375
:1002F000BC8389819A81AB81BC81892B8A2B8B2B12
:1003000029F489859A85AB85BC8511C089859A8534
:10031000AB85BC858D839E83AF83B88789819A81A5
:10032000AB81BC8189879A87AB87BC87D0CFBC0162
:10033000CD012C960FB6F894DEBF0FBECDBFDF9176
:10034000CF910895CF93DF9300D01F92CDB7DEB742
:1003500089837B836A8389818A3031F48A819B8196
:10036000BC018DE00E94A20180EC90E0FC01808144
:10037000882F90E080729927892BB1F386EC90E06A
:100380002981FC01208380E090E00F900F900F9076
:10039000DF91CF910895CF93DF931F92CDB7DEB752
:1003A00089838CE790E02981283028F02CE730E021
:1003B000F901208101C02981FC01208310922501CF
:1003C00006C00000809125018F5F809325018091F8
:1003D00025018F30B0F300000F90DF91CF91089589
:1003E000CF93DF93CDB7DEB78AE790E02AE730E01E
:1003F000F9012081206EFC0120830000DF91CF9164
:100400000895CF93DF9300D0CDB7DEB79A83898369
:1004100081E00E94CB0189819A8182309105C1F0EF
:10042000833091052CF4009749F0019761F04EC09C
:100430008330910539F10497B9F148C081E090E02B
:100440009A83898347C082E090E09A83898342C07F
:1004500088E790E0FC01808191818536924028F008
:1004600083E090E09A83898334C088E790E0FC01C0
:10047000808191818C39914060F584E090E09A838D
:10048000898327C088E790E0FC01808191818C39C5
:10049000914028F484E090E09A8389831BC082E035
:1004A00090E09A83898316C088E790E0FC01808100
:1004B00091818536924028F083E090E09A83898389
:1004C00009C082E090E09A83898304C01A8219826D
:1004D00001C0000089819A818230910509F486C0AB
:1004E0008330910534F4009709F482C0019741F0FC
:1004F00084C08330910559F0049709F440C07DC051
:1005000080E88093590187EC8093130176C0809135
:100510001301883F39F481EF8093130185E08093C4
:100520005E0168C080911301813F39F483EE8093AE
:10053000130184E080935E015DC080911301833ECE
:1005400039F487EC8093130183E080935E0152C0FD
:1005500080911301873C39F48FE88093130182E086
:1005600080935E0147C0809113018F3809F042C02B
:100570008FE18093130181E080935E013BC0809105
:1005800013018F3139F48FE88093130182E0809357
:100590005E0132C0809113018F3839F487EC80936B
:1005A000130183E080935E0127C080911301873C93
:1005B00039F483EE8093130184E080935E011CC0C4
:1005C00080911301833E39F481EF8093130185E01C
:1005D00080935E0111C080911301813F69F488EF1F
:1005E0008093130186E080935E0106C0000005C081
:1005F000000003C0000001C0000088E290E02091EC
:100600005901FC0120838BE290E020911301FC0151
:10061000208389819A810F900F90DF91CF91089567
:10062000CF93DF9300D0CDB7DEB79A8389838981DA
:100630009A8182309105E1F0833091052CF4009786
:1006400049F0019781F038C08330910559F1049742
:1006500071F132C080915A01882389F581E090E0E0
:100660009A8389832CC082E090E09A8389832AC090
:1006700080915301843E48F480915701883029F4D9
:1006800084E090E09A8389831CC080915301843E6A
:10069000C0F0809157018830A1F483E090E09A8304
:1006A00089830FC082E090E09A8389830BC082E047
:1006B00090E09A83898306C01A82198203C00000E1
:1006C00001C0000089819A818230910509F4A6C198
:1006D0008330910534F4009709F4A2C1019741F0E9
:1006E000A4C18330910571F0049709F4D2C09DC173
:1006F00087EC80935B0181E08093550183E08093D8
:100700005D0193C10E94930C83709078992324F427
:1007100001978C6F9F6F01968F5F80935801809136
:100720005801813009F47EC1809158018230C1F5B1
:1007300080915B01883F39F481EF80935B0185E014
:1007400080935D016FC180915B01813F39F483EE3D
:1007500080935B0184E080935D0164C180915B01C3
:10076000833E39F487EC80935B0183E080935D01E5
:1007700059C180915B01873C39F48FE880935B011C
:1007800082E080935D014EC180915B018F3809F05A
:1007900049C18FE180935B0181E080935D0142C19B
:1007A000809158018330C1F580915B01883F39F415
:1007B00083EE80935B0184E080935D0133C180917F
:1007C0005B01813F39F487EC80935B0183E0809388
:1007D0005D0128C180915B01833E39F48FE88093ED
:1007E0005B0182E080935D011DC180915B01873CCC
:1007F00039F481EF80935B0181E080935D0112C148
:1008000080915B018F3809F00DC181EF80935B010E
:1008100081E080935D0106C180915801843009F028
:1008200001C180915B018F3139F48FE880935B01C6
:1008300082E080935D01F6C080915B018F3839F4CE
:1008400087EC80935B0183E080935D01EBC0809136
:100850005B01873C39F483EE80935B0184E08093F5
:100860005D01E0C080915B01833E39F481EF8093AC
:100870005B0185E080935D01D5C080915B01813F84
:1008800009F0D0C088EF80935B0186E080935D0122
:10089000C9C00E94930C83709078992324F4019727
:1008A0008C6F9F6F01968F5F8093580180915801E4
:1008B000813009F4B9C0809158018230C1F580912E
:1008C0005B01883F39F481EF80935B0185E0809381
:1008D0005D01AAC080915B01813F39F483EE809372
:1008E0005B0184E080935D019FC080915B01833E4A
:1008F00039F487EC80935B0183E080935D0194C0C1
:1009000080915B01873C39F48FE880935B0182E042
:1009100080935D0189C080915B018F3809F084C0AC
:100920008FE180935B0181E080935D017DC08091C8
:1009300058018330C1F580915B01813F39F487EC28
:1009400080935B0183E080935D016EC080915B01C9
:100950008F3839F483EE80935B0184E080935D01EE
:1009600063C080915B01873C39F481EF80935B0128
:1009700085E080935D0158C080915B01833E39F42E
:1009800088EF80935B0186E080935D014DC080918C
:100990005B01813F09F048C088EF80935B0186E0EE
:1009A00080935D0141C0809158018430E9F58091C8
:1009B0005B018F3139F48FE880935B0182E0809393
:1009C0005D0132C080915B018F3839F487EC8093F0
:1009D0005B0183E080935D0127C080915B01873CD0
:1009E00039F483EE80935B0184E080935D011CC049
:1009F00080915B01833E39F481EF80935B0185E058
:100A000080935D0111C080915B01813F69F488EFA3
:100A100080935B0186E080935D0106C0000005C005
:100A2000000003C0000001C000008BE290E02091B4
:100A30005B01FC01208388E290E020915501FC01DC
:100A4000208389819A810F900F90DF91CF91089533
:100A5000CF93DF9300D0CDB7DEB79A8389838981A6
:100A60009A818230910509F47DC2833091052CF47E
:100A7000009759F0019771F0FBC28330910509F49A
:100A8000DDC2049709F4A5C2F3C281E090E09A8325
:100A90008983F8C280915701803469F480915301B1
:100AA0008F3749F480915E01813029F484E090E031
:100AB0009A83898356C280915701803469F480916A
:100AC00053018F3B49F480915E01813029F483E02A
:100AD00090E09A83898345C280915701803469F4FC
:100AE000809153018F3D49F480915E01813029F45A
:100AF00084E090E09A83898334C2809157018034E6
:100B000069F4809153018F3B49F480915E018230FA
:100B100029F484E090E09A83898323C2809157016D
:100B2000803469F4809153018F3D49F480915E01D6
:100B3000823029F483E090E09A83898312C2809105
:100B40005701803469F4809153018F3E49F48091BC
:100B50005E01823029F484E090E09A83898301C2A7
:100B600080915701803469F4809153018F3D49F49D
:100B700080915E01833029F484E090E09A83898338
:100B8000F0C180915701803469F4809153018F3E08
:100B900049F480915E01833029F483E090E09A83E8
:100BA0008983DFC180915701803469F480915301BA
:100BB000873F49F480915E01833029F484E090E01E
:100BC0009A838983CEC180915701803469F48091E2
:100BD00053018F3E49F480915E01843029F484E012
:100BE00090E09A838983BDC180915701803469F474
:100BF00080915301873F49F480915E01843029F44C
:100C000083E090E09A838983ACC18091570180345E
:100C100069F4809153018B3F49F480915E018430E7
:100C200029F484E090E09A8389839BC180915701E5
:100C3000803469F480915301873F49F480915E01CB
:100C4000853029F484E090E09A8389838AC1809179
:100C50005701803469F4809153018B3F49F48091AE
:100C60005E01853029F483E090E09A83898379C11D
:100C700080915701803469F4809153018D3F49F48C
:100C800080915E01853029F484E090E09A83898325
:100C900068C180915701803469F4809153018B3F82
:100CA00049F480915E01863029F484E090E09A83D3
:100CB000898357C180915701803469F48091530131
:100CC0008D3F49F480915E01863029F483E090E005
:100CD0009A83898346C180915701803469F4809159
:100CE00053018E3F49F480915E01863029F484E0FF
:100CF00090E09A83898335C180915701823069F4ED
:100D0000809153018F3749F480915D01813029F43E
:100D100084E090E09A83898324C1809157018230D6
:100D200069F4809153018F3B49F480915D018130DA
:100D300029F483E090E09A83898313C1809157015D
:100D4000823069F4809153018F3D49F480915D01B7
:100D5000813029F484E090E09A83898302C18091F4
:100D60005701823069F4809153018F3B49F480919F
:100D70005D01823029F484E090E09A838983F1C098
:100D800080915701823069F4809153018F3D49F47D
:100D900080915D01823029F483E090E09A83898319
:100DA000E0C080915701823069F4809153018F3EF9
:100DB00049F480915D01823029F484E090E09A83C7
:100DC0008983CFC080915701823069F480915301AB
:100DD0008F3D49F480915D01833029F484E090E0F7
:100DE0009A838983BEC080915701823069F48091D3
:100DF00053018F3E49F480915D01833029F483E0F3
:100E000090E09A838983ADC080915701823069F464
:100E100080915301873F49F480915D01833029F42B
:100E200084E090E09A8389839CC08091570182304E
:100E300069F4809153018F3E49F480915D018430C3
:100E400029F484E090E09A8389838BC080915701D4
:100E5000823069F480915301873F49F480915D01AC
:100E6000843029F483E090E09A8389837AC080916A
:100E70005701823069F4809153018B3F49F480918E
:100E80005D01843029F484E090E09A83898369C00D
:100E900080915701823069F480915301873F49F472
:100EA00080915D01853029F484E090E09A83898304
:100EB00058C080915701823069F4809153018B3F73
:100EC00049F480915D01853029F483E090E09A83B4
:100ED000898347C080915701823069F48091530122
:100EE0008D3F49F480915D01853029F484E090E0E4
:100EF0009A83898336C080915701823069F480914A
:100F000053018B3F49F480915D01863029F484E0E0
:100F100090E09A83898325C080915701823069F4DB
:100F2000809153018D3F49F480915D01863029F411
:100F300083E090E09A83898314C0809157018230C6
:100F400009F099C0809153018E3F09F094C08091BF
:100F50005D01863009F08FC084E090E09A83898338
:100F60008AC089C0809153018F3749F4809157011D
:100F7000823029F084E090E09A83898329C08091AF
:100F800053018F3749F480915701803429F084E070
:100F900090E09A8389831CC080915C01823049F47F
:100FA00080915701803429F481E090E09A8389830D
:100FB0000FC080915C01803409F05FC080915701BF
:100FC000823009F05AC081E090E09A83898355C04D
:100FD00054C0809153018E3F49F480915701823073
:100FE00029F082E090E09A83898327C080915301A1
:100FF0008E3F49F480915701803429F082E090E0DF
:101000009A8389831AC080915C01823049F480916F
:101010005701803429F481E090E09A8389830DC0E0
:1010200080915C01803459F580915701823039F507
:1010300081E090E09A83898322C021C080915C0185
:10104000823049F480915701803429F481E090E0A6
:101050009A83898316C080915C01803491F48091D9
:101060005701823071F481E090E09A83898309C04E
:101070001A82198207C0000005C0000003C00000EA
:1010800001C0000089819A8182309105D9F08330B6
:1010900091052CF4009751F0019779F070C08330DE
:1010A000910509F453C0049771F169C082E08093FF
:1010B00057018FEE8093530162C080915701809356
:1010C0005C015DC080915C01803461F480915701C6
:1010D000869580935701809153018695806880930F
:1010E000530148C080915C01823009F043C0809177
:1010F0005701880F8093570180915301869580682E
:101100008093530137C080915C01803479F48091E1
:10111000570186958093570180915301882F90E065
:10112000880F991F81608093530126C080915C01D4
:10113000823011F580915701880F8093570180917B
:101140005301869581608093530116C080915C01A4
:10115000803431F4809157018695809357010EC0F9
:1011600080915C01823051F480915701880F809307
:10117000570104C0000003C0000001C000008BE262
:1011800090E020915301FC01208388E290E02091BF
:101190005701FC01208389819A810F900F90DF9184
:1011A000CF910895CF93DF9300D0CDB7DEB79A8368
:1011B000898389819A81092E000CAA0BBB0B40E020
:1011C00050E027E030E0841B950B2817390708F41E
:1011D00062C08A5B9F4FFC010C943F0C80915401CC
:1011E000803109F04DC081E090E09A83898348C046
:1011F00080915401882309F045C082E090E09A83F1
:10120000898340C080915401843029F483E090E0C8
:101210009A83898339C080915401883029F484E00D
:1012200090E09A83898330C080915401803161F5C8
:1012300087E090E09A83898327C085E090E09A83D5
:10124000898329C086E090E09A83898324C08091B5
:1012500054018823D9F482E090E09A83898316C0F0
:10126000809154018823A1F482E090E09A838983DD
:101270000FC080915401882369F41A8219820AC030
:10128000000009C0000007C0000005C0000003C046
:10129000000001C0000089819A81092E000CAA0B70
:1012A000BB0B40E050E027E030E0841B950B281793
:1012B000390708F46AC0825B9F4FFC010C943F0C15
:1012C00010925A0169C081E080935A0181E08093B5
:1012D000520187EC809356015FC080915601883F90
:1012E00021F481EF8093560154C080915601813FD3
:1012F00021F483EE809356014CC080915601833EC9
:1013000021F487EC8093560144C080915601873CBC
:1013100021F48FE8809356013CC0809156018F38AC
:10132000C1F58FE18093560134C0809156018F3111
:1013300021F48FE8809356012EC0809156018F389A
:1013400021F487EC8093560126C080915601873C9A
:1013500021F483EE809356011EC080915601833E96
:1013600021F481EF8093560116C080915601813F90
:1013700091F488EF809356010EC010925A018FEFBE
:10138000809356011092520107C0000005C0000072
:1013900003C0000001C000008BE290E020915601E4
:1013A000FC01208388E290E020915201FC0120831F
:1013B00089819A810F900F90DF91CF9108952F929C
:1013C0003F92CF93DF93CDB7DEB72E970FB6F89449
:1013D000DEBF0FBECDBF6D837E838F839887298745
:1013E0003A874B875C873E862D868D819E81AF81B3
:1013F000B88529853A854B855C85BC01CD010E9465
:101400001D0CDC01CB0189839A83AB83BC8389816A
:101410009A81AB81BC81892B8A2B8B2B29F48985FE
:101420009A85AB85BC8511C089859A85AB85BC85BD
:101430008D839E83AF83B88789819A81AB81BC817C
:1014400089879A87AB87BC87D0CFBC01CD012E9608
:101450000FB6F894DEBF0FBECDBFDF91CF913F90A6
:101460002F9008952F923F920F931F93CF93DF9366
:10147000CDB7DEB761970FB6F894DEBF0FBECDBF14
:1014800081E290E0FC01108282E290E02FEFFC010B
:10149000208387E290E02FEFFC01208388E290E038
:1014A000FC0110828AE290E02FEFFC0120838BE2A6
:1014B00090E0FC01108280E290E0FC018081809548
:1014C000809354010E94F00180E090E00E940A0C99
:1014D0000E94970C88E0E8E1F1E0DE011A960190A5
:1014E0000D928A95E1F784E090E098878F838FEFE3
:1014F000898789858093260181E090E0A0E0B0E0B3
:101500008093270190932801A0932901B0932A0189
:101510008091270190912801A0912901B0912A0181
:1015200080932B0190932C01A0932D01B0932E0159
:1015300081E092E09093300180932F018985809320
:10154000310181E090E0A0E0B0E08093320190931F
:101550003301A0933401B093350180913201909111
:101560003301A0913401B0913501809336019093FD
:101570003701A0933801B093390180E193E0909353
:101580003B0180933A01898580933C0181E090E0A2
:10159000A0E0B0E080933D0190933E01A0933F0115
:1015A000B093400180913D0190913E01A0913F0197
:1015B000B09140018093410190934201A093430177
:1015C000B093440188E295E09093460180934501F1
:1015D00089858093470181E090E0A0E0B0E08093AE
:1015E000480190934901A0934A01B0934B01809127
:1015F000480190914901A0914A01B0914B0180931B
:101600004C0190934D01A0934E01B0934F0182ED98
:1016100098E090935101809350018A859B85FC014D
:1016200081819281A381B4818B839C83AD83BE83AE
:1016300081E090E09A83898329C089819A81880F0B
:10164000991F9E012F5F3F4F820F931F0996FC0148
:1016500080819181FC0121813281438154818B8180
:101660009C81AD81BE81BE01665F7F4F1B01BC01C5
:10167000CD010E94DF09DC01CB018B839C83AD830C
:10168000BE8389819A8101969A83898329813A81CF
:101690008F8198852817390780F28B819C81AD81D5
:1016A000BE81BC01CD010E9477000E94A5001A8274
:1016B0001982A0C089819A81880F991F9E012F5F8E
:1016C0003F4F820F931F0996FC0180819181FC019D
:1016D000258136814781508589819A81880F991F9C
:1016E000BE016F5F7F4F860F971F0996FC018081B7
:1016F0009181FC0181819281A381B48128173907EE
:101700004A075B0709F045C089819A81880F991FB4
:101710009E012F5F3F4F820F931F0996FC010081AE
:10172000118189819A81880F991F9E012F5F3F4FF8
:10173000820F931F0996FC0180819181FC01218514
:10174000328589819A81880F991FAE014F5F5F4F63
:10175000840F951F0996FC0180819181FC01808195
:10176000082E000C990BF9010995F80180838981F5
:101770009A81880F991F9E012F5F3F4F820F931F01
:101780000996FC0180819181FC01158216821782E5
:10179000108689819A81880F991F9E012F5F3F4F84
:1017A000820F931F0996FC016081718189819A8162
:1017B000880F991F9E012F5F3F4F820F931F09963D
:1017C000FC0180819181FC01258136814781508512
:1017D0008B819C81AD81BE81820F931FA41FB51F99
:1017E000FB0185839683A783B08789819A810196BF
:1017F0009A83898329813A818F81988528173907AF
:1018000008F458CF0000809120018823E1F3109262
:1018100020014DCFFC010FB6F89460915F017091EB
:10182000600180916101909162010FBE309721F0BB
:1018300060837183828393830895A1E21A2EAA1B89
:10184000BB1BFD010DC0AA1FBB1FEE1FFF1FA21770
:10185000B307E407F50720F0A21BB30BE40BF50B6D
:10186000661F771F881F991F1A9469F760957095F6
:10187000809590959B01AC01BD01CF010895EE0FBD
:10188000FF1F0024001C0BBE0790F691E02D099469
:101890008F929F92AF92BF92CF92DF92EF92FF9280
:1018A000CF93DF93EC01688179818A819B816115F7
:1018B00071058105910521F464E279ED8BE597E0EE
:1018C0002DE133EF41E050E00E94A20C49015A01A2
:1018D0009B01AC01A7EAB1E40E94C10C6B017C0141
:1018E000ACEEB4EFA50194010E94CF0CDC01CB015A
:1018F0008C0D9D1DAE1DBF1DB7FF03C00197A10933
:10190000B04888839983AA83BB839F77DF91CF9167
:10191000FF90EF90DF90CF90BF90AF909F908F900F
:1019200008950C94480C84E191E00C94480CA0E0DC
:10193000B0E08093140190931501A0931601B09329
:1019400017010895052E97FB1EF400940E94B90C10
:1019500057FD07D00E941D0C07FC03D04EF40C94D9
:10196000B90C50954095309521953F4F4F4F5F4FA3
:10197000089590958095709561957F4F8F4F9F4FFB
:1019800008950E94D40CA59F900DB49F900DA49F24
:10199000800D911D11240895B7FF0C94C10C0E9475
:1019A000C10C821B930B0895A29FB001B39FC0018D
:1019B000A39F700D811D1124911DB29F700D811D7B
:0A19C0001124911D0895F894FFCF43
:1019CA00010000000000000200000000A201000067
:1019DA00000080FE01000000260131013C014701A0
:00000001FF
