:100000000C946A000C9489000C9489000C9489006B
:100010000C9489000C9489000C9489000C9489003C
:100020000C9489000C9489000C9489000C9489002C
:100030000C9489000C9407010C9489000C9489009D
:100040000C9489000C9489000C9489000C9489000C
:100050000C9489000C9489000C9489000C948900FC
:100060000C9489000C9489000C9489000C948900EC
:100070000C9489000C9489000C9489000C948900DC
:100080000C9489000C9489000C94890040034A0365
:10009000560397039C03A103A603AB03B003B50368
:1000A000DD03E3039206ED036704D9045305BE059F
:1000B00030069206CE06D306B908E708D008F10844
:1000C0001D0907094B0956095B09760967097C096F
:1000D0009709880911241FBECFEFD0E4DEBFCDBF42
:1000E00011E0A0E0B1E0EEE3FCE100E00BBF02C0F4
:1000F00007900D92AE31B107D9F721E0AEE1B1E042
:1001000001C01D92A336B207E1F70E94370B0C9491
:100110001D0E0C940000CF93DF9300D000D0CDB71C
:10012000DEB769837A838B839C8389819A81AB81D3
:10013000BC818093000190930101A0930201B093D0
:1001400003018091000190910101A0910201B09101
:10015000030180931F0190932001A0932101B0938C
:10016000220100000F900F900F900F90DF91CF9120
:100170000895CF93DF93CDB7DEB781E890E02BE011
:10018000FC01208388E890E02DE730E0FC0131831A
:1001900020838FE690E022E0FC01208384E890E059
:1001A000FC01118210828091000190910101A091C7
:1001B0000201B091030180931F0190932001A0934D
:1001C0002101B09322018FE590E02FE530E0F901A5
:1001D00020812068FC0120830000DF91CF910895E9
:1001E000CF93DF93CDB7DEB781E890E0FC011082BA
:1001F0000000DF91CF910895CF93DF93CDB7DEB7A5
:1002000081E080931E010000DF91CF9108951F923D
:100210000F9200905F000F92112400905B000F92EC
:100220002F933F934F935F936F937F938F939F93FE
:10023000AF93BF93EF93FF93CF93DF93CDB7DEB729
:1002400080911F0190912001A0912101B091220184
:100250000197A109B10980931F0190932001A093F8
:100260002101B093220180911F0190912001A09162
:100270002101B0912201892B8A2B8B2B91F40E94B2
:10028000FC008091000190910101A0910201B091C8
:10029000030180931F0190932001A0932101B0934B
:1002A00022010000DF91CF91FF91EF91BF91AF91BB
:1002B0009F918F917F916F915F914F913F912F917E
:1002C0000F9000925B000F9000925F000F901F90C4
:1002D0001895CF93DF93CDB7DEB72C970FB6F89470
:1002E000DEBF0FBECDBF6D837E838F839887298746
:1002F0003A874B875C878D819E81AF81B885298540
:100300003A854B855C85BC01CD010E94430DDC0123
:10031000CB0189839A83AB83BC8389819A81AB812A
:10032000BC81892B8A2B8B2B29F489859A85AB85F7
:10033000BC8511C089859A85AB85BC858D839E83DC
:10034000AF83B88789819A81AB81BC8189879A877D
:10035000AB87BC87D0CFBC01CD012C960FB6F894EB
:10036000DEBF0FBECDBFDF91CF910895CF93DF9356
:1003700000D01F92CDB7DEB789837B836A838981E2
:100380008A3031F48A819B81BC018DE00E94B601E4
:1003900080EC90E0FC018081882F90E080729927AA
:1003A000892BB1F386EC90E02981FC01208380E069
:1003B00090E00F900F900F90DF91CF910895CF9321
:1003C000DF931F92CDB7DEB789838CE790E0298158
:1003D000283028F02CE730E0F901208101C0298184
:1003E000FC0120831092230106C0000080912301AC
:1003F0008F5F80932301809123018F30B0F3000041
:100400000F90DF91CF910895CF93DF93CDB7DEB7F3
:100410008AE790E02AE730E0F9012081206EFC01B4
:1004200020830000DF91CF910895CF93DF9300D018
:10043000CDB7DEB79A83898381E00E94DF0189818D
:100440009A8182309105C1F0833091052CF4009798
:1004500049F0019761F04EC08330910539F104975E
:10046000B9F148C081E090E09A83898347C082E077
:1004700090E09A83898342C088E790E0FC01808104
:1004800091818536924028F083E090E09A838983B9
:1004900034C088E790E0FC01808191818C399140E3
:1004A00060F584E090E09A83898327C088E790E034
:1004B000FC01808191818C39914028F484E090E0A6
:1004C0009A8389831BC082E090E09A83898316C057
:1004D00088E790E0FC01808191818536924028F088
:1004E00083E090E09A83898309C082E090E09A8358
:1004F000898304C01A82198201C0000089819A810F
:100500008230910509F486C08330910534F4009758
:1005100009F482C0019741F084C08330910559F0FD
:10052000049709F440C07DC080E88093570187ECB0
:1005300080935E0176C080915E01883F39F481EF3F
:1005400080935E0185E080935D0168C080915E01CB
:10055000813F39F483EE80935E0184E080935D01F6
:100560005DC080915E01833E39F487EC80935E012B
:1005700083E080935D0152C080915E01873C39F435
:100580008FE880935E0182E080935D0147C0809197
:100590005E018F3809F042C08FE180935E0181E0F7
:1005A00080935D013BC080915E018F3139F48FE80B
:1005B00080935E0182E080935D0132C080915E0194
:1005C0008F3839F487EC80935E0183E080935D017E
:1005D00027C080915E01873C39F483EE80935E01F1
:1005E00084E080935D011CC080915E01833E39F4FC
:1005F00081EF80935E0185E080935D0111C0809161
:100600005E01813F69F488EF80935E0186E080930C
:100610005D0106C0000005C0000003C0000001C06D
:10062000000088E290E020915701FC0120838BE2DA
:1006300090E020915E01FC01208389819A810F90D6
:100640000F90DF91CF910895CF93DF9300D0CDB776
:10065000DEB79A83898389819A81092E000CAA0BBF
:10066000BB0B40E050E029E030E0841B950B2817DD
:10067000390708F483C08A5B9F4FFC010C94650D19
:1006800080915801882309F07EC081E090E09A8330
:10069000898379C080915801882319F01A821982C0
:1006A00077C082E090E09A83898372C0809155017F
:1006B0008930B0F580915C01813029F483E090E0CD
:1006C0009A83898362C080915C01823029F484E03E
:1006D00090E09A83898359C080915C01833029F42A
:1006E00085E090E09A83898350C080915C018430DA
:1006F00029F486E090E09A83898347C080915C0169
:10070000853029F487E090E09A8389833EC0809108
:100710005C018630D1F588E090E09A83898335C00A
:1007200080915801882389F11A8219822EC089E0AC
:1007300090E09A8389832CC089E090E09A83898332
:1007400027C089E090E09A83898322C089E090E005
:100750009A8389831DC089E090E09A83898318C0B9
:1007600089E090E09A83898313C08091550180319C
:1007700070F082E090E09A83898309C081E090E084
:100780009A83898305C0000003C0000001C00000F7
:1007900089819A81092E000CAA0BBB0B40E050E026
:1007A00029E030E0841B950B2817390708F4B8C2FC
:1007B000805B9F4FFC010C94650D8FEF8093590176
:1007C00010925301BCC283E080935C0187EC80935C
:1007D000590181E080935301B2C280915501853067
:1007E00080F580915101883F60F10E94CD0D23E09A
:1007F00030E0B9010E942F0D8F5F809356018091E8
:100800005601813039F481E080935C0181EF80935F
:1008100059015BC080915601823039F482E08093A7
:100820005C018FE88093590150C08091560183305C
:1008300009F04BC083E080935C0187EC8093590101
:1008400044C080915501853008F06EC280915101FD
:10085000883F08F069C20E94CD0D8370907899237B
:1008600024F401978C6F9F6F01968F5F80935601E0
:1008700080915601813039F483E080935C0187ECEC
:100880008093590151C280915601823039F484E03D
:1008900080935C0183EE8093590146C2809156019A
:1008A000833039F485E080935C0181EF80935901B6
:1008B0003BC280915601843009F036C286E08093B5
:1008C0005C0188EF809359012FC200002DC28091F6
:1008D0005501853040F580915101883F20F10E94FB
:1008E000CD0D81709078992324F401978E6F9F6FBE
:1008F00001968F5F8093560180915601813039F4C3
:1009000081E080935C018FE18093590150C0809118
:100910005601823009F04BC082E080935C018FE881
:100920008093590144C080915501853008F0FEC183
:1009300080915101883F08F0F9C10E94CD0D83706C
:100940009078992324F401978C6F9F6F01968F5FA5
:100950008093560180915601813039F483E0809371
:100960005C0187EC80935901E1C18091560182308E
:1009700039F484E080935C0183EE80935901D6C101
:1009800080915601833039F485E080935C0181EFDA
:1009900080935901CBC180915601843009F0C6C1C2
:1009A00086E080935C0188EF80935901BFC100000D
:1009B000BDC180915501853080F580915101883FFE
:1009C00060F10E94CD0D23E030E0B9010E942F0DAF
:1009D0008F5F8093560180915601813039F482E017
:1009E00080935C018FE8809359015BC08091560130
:1009F000823039F481E080935C018FE1809359016A
:100A000050C080915601833009F04BC083E0809341
:100A10005C0187EC8093590144C080915501853079
:100A200008F086C180915101883F08F081C10E9481
:100A3000CD0D83709078992324F401978C6F9F6F6C
:100A400001968F5F8093560180915601813039F471
:100A500083E080935C0187EC8093590169C18091A8
:100A60005601823039F484E080935C0183EE8093F8
:100A700059015EC180915601833039F485E080933D
:100A80005C0181EF8093590153C1809156018430FC
:100A900009F04EC186E080935C0188EF8093590194
:100AA00047C1000045C180915501853078F580919E
:100AB0005101883F58F10E94CD0D23E030E0B9018B
:100AC0000E942F0D8F5F80935601809156018130D7
:100AD00039F483E080935C0187EC809359014CC02A
:100AE00080915601823039F482E080935C018FE876
:100AF0008093590141C0809156018330E9F581E02E
:100B000080935C018FE18093590136C0809155013B
:100B1000853008F00FC180915101883F08F00AC16B
:100B20000E94CD0D23E030E0B9010E942F0D8F5FB0
:100B30008093560180915601813039F484E080938E
:100B40005C0183EE80935901F5C08091560182309B
:100B500039F485E080935C0181EF80935901EAC00C
:100B600080915601833009F0E5C086E080935C01F6
:100B700088EF80935901DEC00000DCC080915501F0
:100B8000853008F03DC080915101883FC8F10E9436
:100B9000CD0D83709078992324F401978C6F9F6F0B
:100BA00001968F5F8093560180915601813039F410
:100BB00084E080935C0183EE809359014FC0809163
:100BC0005601823039F483E080935C0187EC809396
:100BD000590144C080915601833039F482E08093FA
:100BE0005C018FE88093590139C0809156018430AF
:100BF000A9F581E080935C018FE1809359012EC0BB
:100C000080915501853008F097C080915101883F4F
:100C100008F092C00E94CD0D81709078992324F441
:100C200001978E6F9F6F01968F5F80935601809121
:100C30005601813039F485E080935C0181EF809327
:100C400059017AC080915601823009F075C086E062
:100C500080935C0188EF809359016EC000006CC0E6
:100C600080915101853078F580915501883F58F188
:100C70000E94CD0D23E030E0B9010E942F0D8F5F5F
:100C80008093560180915601813039F483E080933E
:100C90005C0187EC8093590141C0809156018230FC
:100CA00039F482E080935C018FE88093590136C06B
:100CB00080915601833091F581E080935C018FE152
:100CC000809359012BC0809151018530B8F58091F6
:100CD0005501883F98F50E94CD0D81709078992339
:100CE00024F401978E6F9F6F01968F5F809356015A
:100CF00080915601813039F486E080935C0188EF61
:100D0000809359011BC0809156018230B9F485E06F
:100D100080935C0181EF8093590110C000000EC0E8
:100D200000000DC000000BC0000009C0000007C09B
:100D3000000005C0000003C0000001C000008BE2FD
:100D400090E020915901FC01208388E290E02091FD
:100D50005301FC01208389819A810F900F90DF91CC
:100D6000CF910895CF93DF9300D0CDB7DEB79A83AC
:100D7000898389819A81092E000CAA0BBB0B40E064
:100D800050E027E030E0841B950B2817390708F462
:100D90005DC2865A9F4FFC010C94650D81E090E086
:100DA0009A83898363C280915B01803409F0ECC02F
:100DB00080915D01813049F4809151018F3729F490
:100DC00082E090E09A838983D3C180915D01813074
:100DD00049F4809151018F3B29F483E090E09A839C
:100DE0008983C6C180915D01813049F480915101B0
:100DF0008F3D29F484E090E09A838983B9C1809182
:100E00005D01823049F4809151018F3B29F482E0E9
:100E100090E09A838983ACC180915D01823049F46E
:100E2000809151018F3D29F483E090E09A8389837A
:100E30009FC180915D01823049F4809151018F3EC4
:100E400029F484E090E09A83898392C180915D01C6
:100E5000833049F4809151018F3D29F482E090E084
:100E60009A83898385C180915D01833049F48091A3
:100E700051018F3E29F483E090E09A83898378C101
:100E800080915D01833049F480915101873F29F4BD
:100E900084E090E09A8389836BC180915D01843006
:100EA00049F4809151018F3E29F482E090E09A83C9
:100EB00089835EC180915D01843049F48091510144
:100EC000873F29F483E090E09A83898351C1809120
:100ED0005D01843049F4809151018B3F29F484E015
:100EE00090E09A83898344C180915D01853049F403
:100EF00080915101873F29F482E090E09A838983B1
:100F000037C180915D01853049F4809151018B3F5B
:100F100029F483E090E09A8389832AC180915D015E
:100F2000853049F4809151018D3F29F484E090E0AF
:100F30009A8389831DC180915D01863049F4809137
:100F400051018B3F29F482E090E09A83898310C19C
:100F500080915D01863049F4809151018D3F29F4E3
:100F600083E090E09A83898303C180915D0186309C
:100F700009F06FC1809151018E3F09F06AC184E090
:100F800090E09A83898365C180915B01823009F08A
:100F9000ECC080915C01813049F4809151018F3720
:100FA00029F485E090E09A838983E2C080915C0116
:100FB000813049F4809151018F3B29F486E090E023
:100FC0009A838983D5C080915C01813049F48091F6
:100FD00051018F3D29F487E090E09A838983C8C04E
:100FE00080915C01823049F4809151018F3B29F45A
:100FF00085E090E09A838983BBC080915C01823058
:1010000049F4809151018F3D29F486E090E09A8364
:101010008983AEC080915C01823049F48091510196
:101020008F3E29F487E090E09A838983A1C0809164
:101030005C01833049F4809151018F3D29F485E0B2
:1010400090E09A83898394C080915C01833049F455
:10105000809151018F3E29F486E090E09A83898344
:1010600087C080915C01833049F480915101873FB2
:1010700029F487E090E09A8389837AC080915C01AB
:10108000843049F4809151018F3E29F485E090E04D
:101090009A8389836DC080915C01843049F480918A
:1010A0005101873F29F486E090E09A83898360C0EC
:1010B00080915C01843049F4809151018B3F29F487
:1010C00087E090E09A83898353C080915C018530EA
:1010D00049F480915101873F29F485E090E09A839B
:1010E000898346C080915C01853049F4809151012B
:1010F0008B3F29F486E090E09A83898339C0809100
:101100005C01853049F4809151018D3F29F487E0DD
:1011100090E09A8389832CC080915C01863049F4E9
:10112000809151018B3F29F485E090E09A83898377
:101130001FC080915C01863049F4809151018D3F40
:1011400029F486E090E09A83898312C080915C0143
:10115000863009F07EC0809151018E3F09F079C040
:1011600087E090E09A83898374C01A82198271C0E3
:1011700070C0809151018E3F49F4809155018230B9
:1011800029F084E090E09A83898365C080915501BD
:10119000823009F060C081E090E09A8389835BC06F
:1011A000809151018F3749F480915501823029F0A7
:1011B00082E090E09A83898350C08091550182300B
:1011C00009F04BC081E090E09A83898346C080910A
:1011D0005501823009F043C081E090E09A83898311
:1011E0003EC0809151018E3F49F480915501803479
:1011F00029F087E090E09A83898333C0809155017C
:10120000803479F581E090E09A8389832AC08091C7
:1012100051018F3749F480915501803429F085E0E0
:1012200090E09A8389831FC0809155018034D9F45E
:1012300081E090E09A83898316C0809155018034C3
:10124000A1F481E090E09A8389830FC01A82198209
:101250000DC000000BC0000009C0000007C0000066
:1012600005C0000003C0000001C0000089819A8110
:10127000092E000CAA0BBB0B40E050E027E030E049
:10128000841B950B2817390708F457C08E599F4FB8
:10129000FC010C94650D80E4809355018FE78093E9
:1012A00051018091550180935B0148C080915501A7
:1012B00080935B0143C080915501869580935501D1
:1012C00080915101869580688093510137C080914B
:1012D000550186958093550180915101882F90E0AA
:1012E000880F991F81608093510128C0809155011A
:1012F00086958093550122C080915501880F809377
:10130000550180915101869580688093510116C0E6
:1013100080915501880F8093550180915101882F4C
:1013200090E0880F991F81608093510107C08091E0
:101330005501880F8093550101C000008BE290E0B9
:1013400020915101FC01208388E290E02091550119
:10135000FC01208389819A810F900F90DF91CF91BA
:101360000895CF93DF9300D0CDB7DEB79A838983FA
:1013700089819A818230910539F1833091052CF46D
:10138000009771F00197B1F05DC08430910509F4C8
:1013900044C0843091059CF1059709F44CC052C0BB
:1013A00080915201823009F050C081E090E09A8330
:1013B00089834BC080915201882309F048C082E0A4
:1013C00090E09A83898343C080915201843029F44C
:1013D00083E090E09A8389833CC0809152018830F9
:1013E00029F484E090E09A83898333C0809152018C
:1013F000823079F585E090E09A8389832AC08091D4
:101400005201883029F484E090E09A83898324C0D3
:1014100082E090E09A8389831FC0809152018430DA
:1014200029F483E090E09A83898316C082E090E0FB
:101430009A83898311C080915201882361F41A82B2
:10144000198209C01A82198207C0000005C0000075
:1014500003C0000001C0000089819A81823091059B
:1014600009F498C08330910534F4009709F494C0CE
:10147000019761F096C08430910509F44CC0843026
:1014800091058CF0059709F47DC08BC081E08093B5
:10149000580181E08093500187EC8093540183E0F0
:1014A00080935C017EC080915401883F39F481EFC4
:1014B0008093540185E080935C0170C08091540159
:1014C000813F39F483EE8093540184E080935C0182
:1014D00065C080915401833E39F487EC80935401B8
:1014E00083E080935C015AC080915401873C39F4B9
:1014F0008FE88093540182E080935C014FC080911B
:1015000054018F3809F04AC08FE18093540181E083
:1015100080935C0143C0809154018F3139F48FE88E
:101520008093540182E080935C013AC08091540121
:101530008F3839F487EC8093540183E080935C0109
:101540002FC080915401873C39F483EE809354017D
:1015500084E080935C0124C080915401833E39F47F
:1015600081EF8093540185E080935C0119C08091E4
:101570005401813FA9F488EF8093540186E0809361
:101580005C010EC010925801109250018FEF8093B1
:10159000540107C0000005C0000003C0000001C0E6
:1015A000000088E290E020915001FC0120838BE252
:1015B00090E020915401FC01208389819A810F9051
:1015C0000F90DF91CF9108952F923F92CF93DF93A9
:1015D000CDB7DEB72E970FB6F894DEBF0FBECDBFE6
:1015E0006D837E838F83988729873A874B875C87B3
:1015F0003E862D868D819E81AF81B88529853A856D
:101600004B855C85BC01CD010E94430DDC01CB0103
:1016100089839A83AB83BC8389819A81AB81BC81A6
:10162000892B8A2B8B2B29F489859A85AB85BC85E0
:1016300011C089859A85AB85BC858D839E83AF83D8
:10164000B88789819A81AB81BC8189879A87AB876A
:10165000BC87D0CFBC01CD012E960FB6F894DEBF6B
:101660000FBECDBFDF91CF913F902F9008952F9265
:101670003F920F931F93CF93DF93CDB7DEB7619760
:101680000FB6F894DEBF0FBECDBF81E290E0FC0143
:10169000108282E290E02FEFFC01208384E290E050
:1016A000FC01108285E290E02FEFFC01208387E2AD
:1016B00090E02FEFFC01208388E290E0FC01108293
:1016C0008AE290E02FEFFC0120838BE290E0FC01A6
:1016D0001082109252010E94040280E090E00E9469
:1016E0001C0DDC01CB010E94D10D88E0E6E1F1E0A8
:1016F000DE011A9601900D928A95E1F784E090E060
:1017000098878F838FEF898789858093240181E073
:1017100090E0A0E0B0E08093250190932601A09393
:101720002701B09328018091250190912601A09175
:101730002701B09128018093290190932A01A09359
:101740002B01B0932C0185E192E090932E018093C0
:101750002D01898580932F0181E090E0A0E0B0E029
:101760008093300190933101A0933201B093330103
:101770008091300190913101A0913201B0913301FB
:101780008093340190933501A0933601B0933701D3
:1017900084E293E0909339018093380189858093A6
:1017A0003A0181E090E0A0E0B0E080933B019093AB
:1017B0003C01A0933D01B0933E0180913B0190918B
:1017C0003C01A0913D01B0913E0180933F01909377
:1017D0004001A0934101B093420182EB96E09093C7
:1017E00044018093430189858093450181E090E025
:1017F000A0E0B0E08093460190934701A093480198
:10180000B09349018091460190914701A091480110
:10181000B091490180934A0190934B01A0934C01F0
:10182000B0934D0181EB99E090934F0180934E016D
:101830008A859B85FC0181819281A381B4818B8300
:101840009C83AD83BE8381E090E09A83898329C025
:1018500089819A81880F991F9E012F5F3F4F820FC8
:10186000931F0996FC0180819181FC0121813281C5
:10187000438154818B819C81AD81BE81BE01665FB5
:101880007F4F1B01BC01CD010E94E40ADC01CB01AA
:101890008B839C83AD83BE8389819A8101969A83D1
:1018A000898329813A818F8198852817390780F2A9
:1018B0008B819C81AD81BE81BC01CD010E948B00DA
:1018C0000E94B90083E290E0FC01808180958093C2
:1018D00052011A821982A0C089819A81880F991FAA
:1018E0009E012F5F3F4F820F931F0996FC0180815D
:1018F0009181FC01258136814781508589819A81BA
:10190000880F991FBE016F5F7F4F860F971F099643
:10191000FC0180819181FC0181819281A381B4814C
:10192000281739074A075B0709F045C089819A8162
:10193000880F991F9E012F5F3F4F820F931F0996BB
:10194000FC010081118189819A81880F991F9E0174
:101950002F5F3F4F820F931F0996FC018081918179
:10196000FC012185328589819A81880F991FAE01FA
:101970004F5F5F4F840F951F0996FC018081918115
:10198000FC018081082E000C990BF9010995F801E2
:10199000808389819A81880F991F9E012F5F3F4F15
:1019A000820F931F0996FC0180819181FC011582B1
:1019B00016821782108689819A81880F991F9E014D
:1019C0002F5F3F4F820F931F0996FC016081718149
:1019D00089819A81880F991F9E012F5F3F4F820F47
:1019E000931F0996FC0180819181FC01258136813C
:1019F000478150858B819C81AD81BE81820F931F71
:101A0000A41FB51FFB0185839683A783B0878981B7
:101A10009A8101969A83898329813A818F81988559
:101A20002817390708F458CF000080911E01882339
:101A3000E1F310921E0146CFFC010FB6F8946091BD
:101A40005F017091600180916101909162010FBE10
:101A5000309721F06083718382839383089597FB8D
:101A6000072E16F4009407D077FD09D00E946E0D62
:101A700007FC05D03EF4909581959F4F0895709591
:101A800061957F4F0895A1E21A2EAA1BBB1BFD0191
:101A90000DC0AA1FBB1FEE1FFF1FA217B307E4074D
:101AA000F50720F0A21BB30BE40BF50B661F771FA5
:101AB000881F991F1A9469F7609570958095909585
:101AC0009B01AC01BD01CF010895EE0FFF1F002463
:101AD000001C0BBE0790F691E02D0994AA1BBB1BBE
:101AE00051E107C0AA1FBB1FA617B70710F0A61B1E
:101AF000B70B881F991F5A95A9F780959095BC013F
:101B0000CD0108958F929F92AF92BF92CF92DF92B4
:101B1000EF92FF92CF93DF93EC01688179818A8104
:101B20009B81611571058105910521F464E279EDD0
:101B30008BE597E02DE133EF41E050E00E94DC0DB2
:101B400049015A019B01AC01A7EAB1E40E94FB0DD7
:101B50006B017C01ACEEB4EFA50194010E94090E6B
:101B6000DC01CB018C0D9D1DAE1DBF1DB7FF03C059
:101B70000197A109B04888839983AA83BB839F7783
:101B8000DF91CF91FF90EF90DF90CF90BF90AF901B
:101B90009F908F9008950C94820D82E191E00C94B7
:101BA000820DA0E0B0E08093120190931301A09306
:101BB0001401B09315010895052E97FB1EF40094AF
:101BC0000E94F30D57FD07D00E94430D07FC03D080
:101BD0004EF40C94F30D50954095309521953F4F60
:101BE0004F4F5F4F089590958095709561957F4F09
:101BF0008F4F9F4F08950E940E0EA59F900DB49F8A
:101C0000900DA49F800D911D11240895B7FF0C9491
:101C1000FB0D0E94FB0D821B930B0895A29FB00148
:101C2000B39FC001A39F700D811D1124911DB29F10
:0E1C3000700D811D1124911D0895F894FFCFB1
:101C3E00010000000000000200000000B6010000DC
:0E1C4E0000000100000024012F013A014501B1
:00000001FF
