:100000000C9474000C9493000C9493000C94930043
:100010000C9493000C9493000C9493000C94930014
:100020000C9493000C9493000C9493000C94930004
:100030000C9493000C9411010C9493000C94930075
:100040000C9493000C9493000C9493000C949300E4
:100050000C9493000C9493000C9493000C949300D4
:100060000C9493000C9493000C9493000C949300C4
:100070000C9493000C9493000C9493000C949300B4
:100080000C9493000C9493000C94930005040F04BB
:100090001B042C0469046E04730478047D04820438
:1000A0008704AF04B504BC08BC08BF046605FE05A0
:1000B0009E064707EF07BC08EC08F108DA0A080BB0
:1000C000160BF10A240B510B5F0B3B0B6C0B6F0BE8
:1000D000970BAA0BAF0BCA0BD30BBB0BD90BF40BB3
:1000E000FD0BE50B030C280C11241FBECFEFD0E451
:1000F000DEBFCDBF11E0A0E0B1E0E8E1F8E200E052
:100100000BBF02C007900D92A232B107D9F721E0D0
:10011000A2E2B1E001C01D92A938B207E1F70E9446
:10012000440F0C940A140C940000CF93DF9300D07A
:1001300000D0CDB7DEB769837A838B839C838981B6
:100140009A81AB81BC818093000190930101A093BF
:100150000201B09303018091000190910101A091EF
:100160000201B09103018093230190932401A09395
:100170002501B093260100000F900F900F900F9073
:10018000DF91CF910895CF93DF93CDB7DEB781E8AC
:1001900090E02BE0FC01208388E890E02DE730E040
:1001A000FC01318320838FE690E022E0FC01208374
:1001B00084E890E0FC01118210828091000190910E
:1001C0000101A0910201B09103018093230190935A
:1001D0002401A0932501B09326018FE590E02FE53F
:1001E00030E0F90120812068FC0120830000DF91CC
:1001F000CF910895CF93DF93CDB7DEB781E890E03C
:10020000FC0110820000DF91CF910895CF93DF931E
:10021000CDB7DEB781E0809322010000DF91CF915E
:1002200008951F920F9200905F000F92112400908A
:100230005B000F922F933F934F935F936F937F9346
:100240008F939F93AF93BF93EF93FF93CF93DF93DE
:10025000CDB7DEB78091230190912401A0912501B3
:10026000B09126010197A109B109809323019093D0
:100270002401A0932501B093260180912301909140
:100280002401A0912501B0912601892B8A2B8B2B6B
:1002900091F40E9406018091000190910101A091CA
:1002A0000201B09103018093230190932401A09354
:1002B0002501B09326010000DF91CF91FF91EF91CE
:1002C000BF91AF919F918F917F916F915F914F916E
:1002D0003F912F910F9000925B000F9000925F0072
:1002E0000F901F901895CF93DF93CDB7DEB72C9763
:1002F0000FB6F894DEBF0FBECDBF6D837E838F83B4
:10030000988729873A874B875C878D819E81AF814B
:10031000B88529853A854B855C85BC01CD010E9455
:100320009C11DC01CB0189839A83AB83BC838981D7
:100330009A81AB81BC81892B8A2B8B2B29F48985EF
:100340009A85AB85BC8511C089859A85AB85BC85AE
:100350008D839E83AF83B88789819A81AB81BC816D
:1003600089879A87AB87BC87D0CFBC01CD012C96FB
:100370000FB6F894DEBF0FBECDBFDF91CF910895C9
:10038000CF93DF9300D01F92CDB7DEB789837B83F5
:100390006A8389818A3031F48A819B81BC018DE036
:1003A0000E94C00180EC90E0FC018081882F90E0E9
:1003B00080729927892BB1F386EC90E02981FC01AA
:1003C000208380E090E00F900F900F90DF91CF910D
:1003D00008950F931F93CF93DF9300D000D0CDB734
:1003E000DEB769837A838B839C8380912701909108
:1003F0002801A0912901B0912A019C01AD016981D8
:100400007A818B819C810E94DB11882309F477C05B
:1004100020E030E0A90169817A818B819C810E9472
:10042000DB11882351F481E990E021E930E0F90102
:1004300020812870FC01208309C081E990E021E936
:1004400030E0F90120812360FC01208328E539E3B5
:1004500044E75FE369817A818B819C810E94DB1193
:10046000882344F488E990E02FEF3FEFFC013183CB
:10047000208334C020E034E244EF56E469817A817D
:100480008B819C810E94FD12181634F488E990E05B
:10049000FC011182108222C008E910E020E030E067
:1004A00040E053E469817A818B819C810E94021330
:1004B000DC01CB019C01AD0160E074E284EF9AE4C1
:1004C0000E94E011DC01CB01BC01CD010E9452125F
:1004D000DC01CB010197F8019183808384E990E0EE
:1004E000FC011182108289819A81AB81BC81809349
:1004F000270190932801A0932901B0932A010000BD
:100500000F900F900F900F90DF91CF911F910F914F
:100510000895CF93DF93CDB7DEB780E990E020E474
:10052000FC01208381E990E02BE0FC01208360E066
:1005300070E0CB010E94E9010000DF91CF910895A6
:10054000CF93DF93CDB7DEB780E990E0FC01108256
:1005500081E990E0FC0110820000DF91CF910895C5
:10056000CF93DF931F92CDB7DEB789838CE790E0FE
:100570002981283028F02CE730E0F901208101C0E2
:100580002981FC01208310922B0106C0000080917C
:100590002B018F5F80932B0180912B018F30B0F363
:1005A00000000F90DF91CF910895CF93DF93CDB7E7
:1005B000DEB78AE790E02AE730E0F9012081206E7B
:1005C000FC0120830000DF91CF910895CF93DF934A
:1005D00000D0CDB7DEB79A83898381E00E94B00254
:1005E00089819A8182309105C1F0833091052CF484
:1005F000009749F0019761F04EC08330910539F1C1
:100600000497B9F148C081E090E09A83898347C09C
:1006100082E090E09A83898342C088E790E0FC0101
:10062000808191818536924028F083E090E09A8322
:10063000898334C088E790E0FC01808191818C3906
:10064000914060F584E090E09A83898327C088E731
:1006500090E0FC01808191818C39914028F484E004
:1006600090E09A8389831BC082E090E09A8389831B
:1006700016C088E790E0FC01808191818536924028
:1006800028F083E090E09A83898309C082E090E0BB
:100690009A83898304C01A82198201C0000089816B
:1006A0009A818230910509F486C08330910534F433
:1006B000009709F482C0019741F084C0833091050E
:1006C00059F0049709F440C07DC080E880937A0116
:1006D00087EC8093840176C080918401883F39F44F
:1006E00081EF8093840185E08093820168C08091CE
:1006F0008401813F39F483EE8093840184E0809308
:1007000082015DC080918401833E39F487EC80933F
:10071000840183E08093820152C080918401873CF0
:1007200039F48FE88093840182E08093820147C08E
:10073000809184018F3809F042C08FE18093840159
:1007400081E0809382013BC0809184018F3139F434
:100750008FE88093840182E08093820132C080918F
:1007600084018F3839F487EC8093840183E080938F
:10077000820127C080918401873C39F483EE809305
:10078000840184E0809382011CC080918401833EB7
:1007900039F481EF8093840185E08093820111C058
:1007A00080918401813F69F488EF8093840186E021
:1007B0008093820106C0000005C0000003C0000055
:1007C00001C0000089819A810F900F90DF91CF9135
:1007D0000895CF93DF9300D0CDB7DEB79A83898396
:1007E00089819A81092E000CAA0BBB0B40E050E0D6
:1007F0002AE030E0841B950B2817390708F490C0D5
:100800008A5B9F4FFC010C94BE1180917B01882371
:1008100009F089C081E090E09A83898384C0809147
:100820007B01882319F01A82198284C082E090E04B
:100830009A8389837FC080917B01882319F01A8273
:10084000198273C080917601853008F06EC083E014
:1008500090E09A83898369C080917B01882319F095
:100860001A82198264C080918101813029F484E068
:1008700090E09A8389835BC080918101823029F462
:1008800085E090E09A83898352C080918101833012
:1008900029F486E090E09A83898349C080918101A0
:1008A000843029F487E090E09A83898340C0809166
:1008B0008101853029F488E090E09A83898337C0EC
:1008C00080918101863099F589E090E09A8389834F
:1008D0002EC08AE090E09A8389832CC08AE090E061
:1008E0009A83898327C08AE090E09A83898322C013
:1008F0008AE090E09A8389831DC08AE090E09A8321
:10090000898318C08AE090E09A83898313C080911C
:100910007601803170F082E090E09A83898309C08B
:100920001A82198207C0000005C0000003C0000041
:1009300001C0000089819A81092E000CAA0BBB0B13
:1009400040E050E02AE030E0841B950B281739077F
:1009500008F412C48F5A9F4FFC010C94BE118FEF04
:1009600080937C011092710114C487EC80937C0108
:1009700081E08093710183E0809381010AC48091BA
:100980006F01803F60F50E94BA13817090789923BF
:1009900024F401978E6F9F6F019690937801809356
:1009A00077018091770190917801892B39F48FE15B
:1009B00080937C0181E080938101E0C38091770185
:1009C00090917801019709F0D9C380917C018695B7
:1009D000806880937C0182E080938101CFC3809105
:1009E0006F01803F08F4CAC30E94BA1323E030E0CD
:1009F000B9010E94881190937801809377018091CA
:100A0000770190917801892BB1F480917C018695D2
:100A1000806880937C0180917C01869580688093BA
:100A20007C0180917C018695806880937C0184E0C4
:100A300080938101A3C38091770190917801019700
:100A4000E1F480917C018695806880937C0180919F
:100A50007C018695806880937C0180917C018695DD
:100A6000806880937C0180917C018695806880936A
:100A70007C0185E08093810181C380917701909111
:100A80007801029709F07AC380917C01869580688D
:100A900080937C0180917C018695806880937C01A5
:100AA00080917C018695806880937C0180917C0197
:100AB0008695806880937C0180917C018695806812
:100AC00080937C0186E08093810158C380916F01FF
:100AD000803F78F50E94BA1381709078992324F4AE
:100AE00001978E6F9F6F01969093780180937701A5
:100AF0008091770190917801892B39F48FE8809368
:100B00007C0182E0809381013BC3809177019091C9
:100B10007801019709F034C380917C01882F90E01F
:100B2000880F991F816080937C0181E0809381010F
:100B300027C380916F01803F08F422C30E94BA133B
:100B400023E030E0B9010E948811909378018093EE
:100B500077018091770190917801892B81F48091C0
:100B60007C018695806880937C0180917C018695CC
:100B7000806880937C0184E08093810101C380912F
:100B80007701909178010197B1F480917C0186956D
:100B9000806880937C0180917C0186958068809339
:100BA0007C0180917C018695806880937C0185E042
:100BB00080938101E5C2809177019091780102973D
:100BC00009F0DEC280917C018695806880937C016B
:100BD00080917C018695806880937C0180917C0166
:100BE0008695806880937C0180917C0186958068E1
:100BF00080937C0186E080938101C2C280916F0165
:100C0000803F08F048C00E94BA1323E030E0B901E9
:100C10000E948811909378018093770180917701E9
:100C200090917801892B69F480917C01882F90E064
:100C3000880F991F816080937C0182E080938101FD
:100C4000A1C280917701909178010197B1F48091D0
:100C50007C01882F90E0880F991F816080937C0130
:100C600080917C01882F90E0880F991F816080938C
:100C70007C0181E08093810185C280917701909110
:100C80007801029709F07EC287EC80937C0183E0B3
:100C90008093810177C280916F01803F08F472C216
:100CA0000E94BA1323E030E0B9010E9488119093AA
:100CB0007801809377018091770190917801892B59
:100CC00051F480917C018695806880937C0184E05A
:100CD0008093810157C280917701909178010197AB
:100CE00081F480917C018695806880937C0180915D
:100CF0007C018695806880937C0185E080938101EA
:100D000041C28091770190917801029709F03AC22F
:100D100080917C018695806880937C0180917C0124
:100D20008695806880937C0180917C01869580689F
:100D300080937C0186E08093810124C280916F01C1
:100D4000803F08F060C00E94BA1323E030E0B90190
:100D50000E948811909378018093770180917701A8
:100D600090917801892B69F480917C01882F90E023
:100D7000880F991F816080937C0183E080938101BB
:100D800003C280917701909178010197B1F480912D
:100D90007C01882F90E0880F991F816080937C01EF
:100DA00080917C01882F90E0880F991F816080934B
:100DB0007C0182E080938101E7C18091770190916D
:100DC0007801029709F0E0C180917C01882F90E0C2
:100DD000880F991F816080937C0180917C01882F0E
:100DE00090E0880F991F816080937C0180917C0145
:100DF000882F90E0880F991F816080937C0181E0AB
:100E000080938101C1C180916F01803F08F4BCC112
:100E10000E94BA1323E030E0B9010E948811909338
:100E20007801809377018091770190917801892BE7
:100E300039F483EE80937C0184E080938101A4C126
:100E40008091770190917801019751F480917C0114
:100E50008695806880937C0185E08093810194C1B0
:100E60008091770190917801029709F08DC180916E
:100E70007C018695806880937C0180917C018695B9
:100E8000806880937C0186E0809381017DC18091A0
:100E90006F01803F08F072C00E94BA1323E030E077
:100EA000B9010E9488119093780180937701809115
:100EB000770190917801892BB1F480917C01882F82
:100EC00090E0880F991F816080937C0180917C0164
:100ED000882F90E0880F991F816080937C0183E0C8
:100EE0008093810153C1809177019091780101979E
:100EF000F9F480917C01882F90E0880F991F816020
:100F000080937C0180917C01882F90E0880F991F4D
:100F1000816080937C0180917C01882F90E0880F14
:100F2000991F816080937C0182E0809381012EC1B2
:100F30008091770190917801029709F027C1809103
:100F40007C01882F90E0880F991F816080937C013D
:100F500080917C01882F90E0880F991F8160809399
:100F60007C0180917C01882F90E0880F991F81601F
:100F700080937C0181E08093810108C180916F01A1
:100F8000803F08F403C10E94BA13817090789923BE
:100F900024F401978E6F9F6F019690937801809350
:100FA00077018091770190917801892B39F481EF55
:100FB00080937C0185E080938101E8C08091770176
:100FC00090917801019709F0E1C080917C018695AC
:100FD000806880937C0186E080938101D7C08091F6
:100FE0006F01803F08F096C00E94BA1323E030E002
:100FF000B9010E94881190937801809377018091C4
:10100000770190917801892BF9F480917C01882FE8
:1010100090E0880F991F816080937C0180917C0112
:10102000882F90E0880F991F816080937C018091C8
:101030007C01882F90E0880F991F816080937C014C
:1010400083E080938101A4C0809177019091780121
:10105000019741F580917C01882F90E0880F991FBE
:10106000816080937C0180917C01882F90E0880FC3
:10107000991F816080937C0180917C01882F90E092
:10108000880F991F816080937C0180917C01882F5B
:1010900090E0880F991F816080937C0182E08093AB
:1010A000810176C08091770190917801029709F0D3
:1010B0006FC080917C01882F90E0880F991F81601C
:1010C00080937C0180917C01882F90E0880F991F8C
:1010D000816080937C0180917C01882F90E0880F53
:1010E000991F816080937C0180917C01882F90E022
:1010F000880F991F816080937C0180917C01882FEB
:1011000090E0880F991F816080937C0181E080933B
:1011100081013EC080916F01803FD0F10E94BA13DF
:1011200081709078992324F401978E6F9F6F0196B8
:101130009093780180937701809177019091780165
:10114000892B69F480917C01882F90E0880F991F8A
:10115000816080937C0185E08093810119C080913A
:10116000770190917801019799F488EF80937C0141
:1011700086E0809381010CC000000BC0000009C014
:10118000000007C0000005C0000003C0000001C04F
:10119000000089819A810F900F90DF91CF9108957F
:1011A000CF93DF9300D0CDB7DEB79A83898389814F
:1011B0009A81092E000CAA0BBB0B40E050E02BE0FB
:1011C00030E0841B950B2817390708F48BC2845A2A
:1011D0009F4FFC010C94BE1181E090E09A838983BB
:1011E00091C280918001803409F0EFC0809182012A
:1011F000813049F480916F018F3729F482E090E0CB
:101200009A838983D6C180918201813049F480918B
:101210006F018F3B29F483E090E09A838983C9C1F1
:1012200080918201813049F480916F018F3D29F4D2
:1012300085E090E09A838983BCC1809182018230ED
:1012400049F480916F018F3B29F482E090E09A830A
:101250008983AFC180918201823049F480916F010E
:101260008F3D29F483E090E09A838983A2C1809125
:101270008201823049F480916F018F3E29F485E02C
:1012800090E09A83898395C180918201833049F4EB
:1012900080916F018F3D29F482E090E09A838983E9
:1012A00088C180918201833049F480916F018F3E23
:1012B00029F483E090E09A8389837BC18091820145
:1012C000833049F480916F01873F29F485E090E0F5
:1012D0009A8389836EC180918201843049F4809120
:1012E0006F018F3E29F482E090E09A83898361C187
:1012F00080918201843049F480916F01873F29F405
:1013000083E090E09A83898354C180918201843084
:1013100049F480916F018B3F29F485E090E09A8336
:10132000898347C180918201853049F480916F01A2
:10133000873F29F482E090E09A8389833AC18091C3
:101340008201853049F480916F018B3F29F483E05D
:1013500090E09A8389832DC180918201853049F480
:1013600080916F018D3F29F485E090E09A83898315
:1013700020C180918201863049F480916F018B3FBA
:1013800029F482E090E09A83898313C180918201DD
:10139000863049F480916F018D3F29F483E090E01D
:1013A0009A83898306C180918201863049F48091B5
:1013B0006F018E3F29F485E090E09A838983F9C01C
:1013C0008AE090E09A83898390C180918001823085
:1013D00009F08BC180918101813049F480916F01C6
:1013E0008F3729F486E090E09A838983E2C0809168
:1013F0008101813049F480916F018F3B29F487E0AE
:1014000090E09A838983D5C080918101813049F42D
:1014100080916F018F3D29F489E090E09A83898360
:10142000C8C080918101823049F480916F018F3B67
:1014300029F486E090E09A838983BBC08091810182
:10144000823049F480916F018F3D29F487E090E06C
:101450009A838983AEC080918101823049F4809162
:101460006F018F3E29F489E090E09A838983A1C0BF
:1014700080918101833049F480916F018F3D29F47F
:1014800086E090E09A83898394C0809181018330C3
:1014900049F480916F018F3E29F487E090E09A83B0
:1014A000898387C080918101833049F480916F01E5
:1014B000873F29F489E090E09A8389837AC08091FC
:1014C0008101843049F480916F018F3E29F486E0D8
:1014D00090E09A8389836DC080918101843049F4C2
:1014E00080916F01873F29F487E090E09A83898398
:1014F00060C080918101843049F480916F018B3FFD
:1015000029F489E090E09A83898353C08091810116
:10151000853049F480916F01873F29F486E090E09F
:101520009A83898346C080918101853049F48091F6
:101530006F018B3F29F487E090E09A83898339C05B
:1015400080918101853049F480916F018D3F29F4AC
:1015500089E090E09A8389832CC080918101863054
:1015600049F480916F018B3F29F486E090E09A83E3
:1015700089831FC080918101863049F480916F0179
:101580008D3F29F487E090E09A83898312C080918F
:101590008101863049F480916F018E3F29F489E002
:1015A00090E09A83898305C08BE090E09A838983D9
:1015B0009CC09BC080916F018E3F49F48091760161
:1015C000823029F085E090E09A83898390C08091F1
:1015D0007601823009F08BC081E090E09A838983A4
:1015E00086C080916F018F3749F4809176018230F7
:1015F00029F082E090E09A8389837BC08091760114
:10160000823009F076C081E090E09A83898371C0CE
:1016100080917601823029F481E090E09A83898379
:1016200071C084E090E09A8389836CC080917E01D0
:10163000882329F080917601823009F05CC083E034
:1016400090E09A83898357C080916F018E3F49F45F
:1016500080917601803429F089E090E09A83898333
:101660004CC080917601803409F047C081E090E061
:101670009A83898342C080916F018F3749F48091AA
:101680007601803429F086E090E09A83898337C020
:1016900080917601803499F581E090E09A83898386
:1016A0002EC080917601803429F481E090E09A8305
:1016B000898328C088E090E09A83898323C0809141
:1016C0007E01882321F0809176018034D1F487E077
:1016D00090E09A83898315C01A82198213C01A82F6
:1016E000198210C01A8219820DC000000BC00000C0
:1016F00009C0000007C0000005C0000003C00000D2
:1017000001C0000089819A81092E000CAA0BBB0B35
:1017100040E050E02BE030E0841B950B28173907A0
:1017200008F4BBC088599F4FFC010C94BE1182E0A5
:1017300080937E0160E070E0CB010E94E90180E4CB
:10174000809376018FEE80936F0180917601809374
:101750008001A4C080917601809380019FC0809118
:10176000760186958093760180916F0186958068D9
:1017700080936F0193C08091760186958093760166
:1017800080916F01882F90E0880F991F816080936E
:101790006F0184C082E080937E01809176018695FE
:1017A000809376017BC080917E01815080937E0181
:1017B00075C080917601880F8093760180916F01CA
:1017C0008695806880936F0169C080917601880F4B
:1017D0008093760180916F01882F90E0880F991F88
:1017E000816080936F015AC082E080937E01809176
:1017F0007601880F8093760151C080917E018150DF
:1018000080937E014BC0809175018F5F809375013D
:1018100060E070E185E795E40E94E901809175013F
:10182000813041F480917901882321F481E0809313
:10183000730107C080917501823019F483E08093B1
:10184000730185E290E020917301FC01208326C0A2
:10185000809179018F5F8093790160E070E185E785
:1018600095E40E94E90180917901813041F48091F1
:101870007501882321F484E08093730107C080916F
:101880007901823019F486E08093730185E290E05B
:1018900020917301FC01208301C0000089819A819D
:1018A0000F900F90DF91CF910895CF93DF9300D0E9
:1018B000CDB7DEB79A83898389819A818230910579
:1018C00039F1833091052CF4009771F00197B1F054
:1018D0005DC08430910509F444C0843091059CF1C9
:1018E000059709F44CC052C080917001823009F014
:1018F00050C081E090E09A8389834BC08091700151
:10190000882309F048C082E090E09A83898343C02D
:1019100080917001843029F483E090E09A83898378
:101920003CC080917001883029F484E090E09A8373
:10193000898333C080917001823079F585E090E031
:101940009A8389832AC080917001883029F484E0C9
:1019500090E09A83898324C082E090E09A8389830F
:101960001FC080917001843029F483E090E09A8355
:10197000898316C082E090E09A83898311C08091A8
:101980007001882361F41A82198209C01A821982AF
:1019900007C0000005C0000003C0000001C0000037
:1019A00089819A818230910509F4A3C08330910521
:1019B00034F4009709F49FC0019761F0A1C084300E
:1019C000910509F455C084309105D4F0059709F4C8
:1019D00086C096C088E08093740181E080937B018B
:1019E00081E080936E0187EC8093720183E08093A5
:1019F000810185E290E020917401FC01208380C088
:101A000080917201883F39F481EF8093720185E003
:101A10008093810172C080917201813F39F483EE1D
:101A20008093720184E08093810167C0809172018C
:101A3000833E39F487EC8093720183E080938101C7
:101A40005CC080917201873C39F48FE88093720109
:101A500082E08093810151C0809172018F3809F03A
:101A60004CC08FE18093720181E08093810145C079
:101A7000809172018F3139F48FE88093720182E096
:101A8000809381013CC0809172018F3839F487ECDA
:101A90008093720183E08093810131C08091720153
:101AA000873C39F483EE8093720184E08093810156
:101AB00026C080917201833E39F481EF80937201D8
:101AC00085E0809381011BC080917201813FB9F450
:101AD00088EF8093720186E08093810110C010929C
:101AE000740110927B0110926E018FEF809372014E
:101AF00007C0000005C0000003C0000001C00000D6
:101B000089819A810F900F90DF91CF910895CF93A3
:101B1000DF9300D0CDB7DEB79A83898389819A811C
:101B20008130910551F08230910561F0892B69F483
:101B300081E090E09A8389830BC082E090E09A83F1
:101B4000898306C01A82198203C01A821982000092
:101B500089819A818130910569F08230910589F0FF
:101B6000892B09F015C086E6809383018FE9809365
:101B70007F010EC08CE3809383018BEF80937F0104
:101B800007C088E1809383018DEF80937F0100007F
:101B900089819A810F900F90DF91CF910895CF9313
:101BA000DF9300D0CDB7DEB79A83898389819A818C
:101BB0008230910579F1833091052CF4009771F012
:101BC0000197F1F07CC08430910509F458C084304D
:101BD0009105A4F1059709F45EC071C08091700170
:101BE000882349F080917501833028F48091790130
:101BF000833008F467C081E090E09A83898362C0F3
:101C000080917D01882309F05FC082E090E09A8393
:101C100089835AC080917001813041F080917501B3
:101C2000833020F480917901833018F01A82198270
:101C30004EC083E090E09A83898349C080917B0104
:101C4000882329F484E090E09A8389833FC08091BF
:101C50007B01882329F085E090E09A83898336C050
:101C600080917001813041F080917501833020F4C2
:101C700080917901833050F11A82198227C08091B6
:101C80007001813019F41A82198221C082E090E03B
:101C90009A8389831CC080917001813041F08091CA
:101CA0007501833020F480917901833018F01A8215
:101CB00019820DC082E090E09A83898308C01A825D
:101CC000198205C0000003C0000001C00000898126
:101CD0009A818230910509F449C0833091052CF432
:101CE000009779F0019781F175C08430910509F46E
:101CF00057C0843091050CF446C0059709F45DC0C7
:101D000069C010927501109279011092730185E2F9
:101D100090E0FC01108287EC8093840183E0809343
:101D2000820183E08093810187EC80937C0187ECC2
:101D30008093720180E4809376018FEE80936F012F
:101D400088E580937D0146C088E290E02091830180
:101D5000FC0120838BE290E020917F01FC01208335
:101D600080917D01815080937D0134C088E290E0B4
:101D700020917A01FC0120838BE290E02091840184
:101D8000FC01208327C088E290E020917601FC01CD
:101D900020838BE290E020916F01FC0120831AC028
:101DA00088E290E020917101FC0120838BE290E0B9
:101DB00020917C01FC0120830DC088E290E02091FD
:101DC0006E01FC0120838BE290E020917201FC0106
:101DD0002083000089819A810F900F90DF91CF912D
:101DE00008952F923F92CF93DF93CDB7DEB72E9712
:101DF0000FB6F894DEBF0FBECDBF6D837E838F8399
:101E0000988729873A874B875C873E862D868D8108
:101E10009E81AF81B88529853A854B855C85BC015B
:101E2000CD010E949C11DC01CB0189839A83AB8395
:101E3000BC8389819A81AB81BC81892B8A2B8B2BB6
:101E400029F489859A85AB85BC8511C089859A85D9
:101E5000AB85BC858D839E83AF83B88789819A814A
:101E6000AB81BC8189879A87AB87BC87D0CFBC0107
:101E7000CD012E960FB6F894DEBF0FBECDBFDF9119
:101E8000CF913F902F9008952F923F920F931F93E1
:101E9000CF93DF93CDB7DEB765970FB6F894DEBF6B
:101EA0000FBECDBF81E290E0FC01108282E290E0A3
:101EB0002FEFFC01208384E290E02FEFFC012083D0
:101EC00085E290E0FC01108287E290E02FEFFC01B8
:101ED000208388E290E0FC0110828AE290E02FEFFC
:101EE000FC0120838BE290E0FC01108210927001D3
:101EF0000E94D50280E090E00E947511DC01CB01C8
:101F00000E94BE138CE0E6E1F1E0DE011A9601903A
:101F10000D928A95E1F786E090E098878F838FEFA6
:101F20008987898580932C018FE090E0A0E0B0E064
:101F300080932D0190932E01A0932F01B093300137
:101F400080912D0190912E01A0912F01B09130012F
:101F50008093310190933201A0933301B093340107
:101F600086EE92E0909336018093350189858093C7
:101F700037018FE090E0A0E0B0E0809338019093CB
:101F80003901A0933A01B0933B01809138019091BF
:101F90003901A0913A01B0913B0180933C019093AB
:101FA0003D01A0933E01B0933F0189EE93E09093F1
:101FB0004101809340018985809342018FE090E048
:101FC000A0E0B0E08093430190934401A0934501C9
:101FD000B09346018091430190914401A091450145
:101FE000B09146018093470190934801A093490125
:101FF000B0934A0180ED98E090934C0180934B019F
:10200000898580934D018FE090E0A0E0B0E080935F
:102010004E0190934F01A0935001B09351018091D4
:102020004E0190914F01A0915001B09151018093C8
:10203000520190935301A0935401B093550185E54B
:102040009CE09093570180935601898580935801B5
:1020500081E090E0A0E0B0E08093590190935A01B4
:10206000A0935B01B0935C018091590190915A015A
:10207000A0915B01B0915C0180935D0190935E0142
:10208000A0935F01B093600187E89DE090936201A7
:102090008093610189858093630181E090E0A0E0F5
:1020A000B0E08093640190936501A0936601B093C2
:1020B00067018091640190916501A0916601B091E2
:1020C00067018093680190936901A0936A01B093BE
:1020D0006B018FEC9DE090936D0180936C010E94E9
:1020E00089028A859B85FC0181819281A381B481CB
:1020F0008B839C83AD83BE8381E090E09A83898348
:1021000029C089819A81880F991F9E012F5F3F4FB7
:10211000820F931F0996FC0180819181FC0121812E
:102120003281438154818B819C81AD81BE81BE010E
:10213000665F7F4F1B01BC01CD010E94F10EDC01E7
:10214000CB018B839C83AD83BE8389819A81019669
:102150009A83898329813A818F8198852817390745
:1021600080F28B819C81AD81BE81BC01CD010E943A
:1021700095000E94C30080E290E0FC018081809580
:10218000809370011A821982A0C089819A81880F78
:10219000991F9E012F5F3F4F820F931F0996FC01ED
:1021A00080819181FC01258136814781508589811B
:1021B0009A81880F991FBE016F5F7F4F860F971F0F
:1021C0000996FC0180819181FC0181819281A3812A
:1021D000B481281739074A075B0709F045C0898190
:1021E0009A81880F991F9E012F5F3F4F820F931F87
:1021F0000996FC010081118189819A81880F991FBC
:102200009E012F5F3F4F820F931F0996FC01808133
:102210009181FC012185328589819A81880F991FDE
:10222000AE014F5F5F4F840F951F0996FC018081BF
:102230009181FC018081082E000C990BF901099510
:10224000F801808389819A81880F991F9E012F5FF1
:102250003F4F820F931F0996FC0180819181FC0101
:10226000158216821782108689819A81880F991F9C
:102270009E012F5F3F4F820F931F0996FC016081E3
:10228000718189819A81880F991F9E012F5F3F4F2D
:10229000820F931F0996FC0180819181FC012581A9
:1022A0003681478150858B819C81AD81BE81820FB3
:1022B000931FA41FB51FFB0185839683A783B08757
:1022C00089819A8101969A83898329813A818F81B4
:1022D00098852817390708F458CF0000809122010B
:1022E0008823E1F31092220146CFFC010FB6F89447
:1022F000609185017091860180918701909188019C
:102300000FBE309721F06083718382839383089599
:1023100097FB072E16F4009407D077FD09D00E9492
:10232000C71107FC05D03EF4909581959F4F089505
:10233000709561957F4F0895A1E21A2EAA1BBB1BD1
:10234000FD010DC0AA1FBB1FEE1FFF1FA217B30781
:10235000E407F50720F0A21BB30BE40BF50B661F97
:10236000771F881F991F1A9469F76095709580955B
:1023700090959B01AC01BD01CF010895EE0FFF1FA9
:102380000024001C0BBE0790F691E02D0994AA1BB7
:10239000BB1B51E107C0AA1FBB1FA617B70710F050
:1023A000A61BB70B881F991F5A95A9F78095909582
:1023B000BC01CD0108950E94881208F481E00895BF
:1023C0000E94F4110C94C3120E94BC1258F00E9497
:1023D000B51240F029F45F3F29F00C94AC12511172
:1023E0000C94F7120C94B2120E94D41268F3992341
:1023F000B1F3552391F3951B550BBB27AA27621701
:102400007307840738F09F5F5F4F220F331F441F0D
:10241000AA1FA9F335D00E2E3AF0E0E832D0915041
:102420005040E695001CCAF72BD0FE2F29D0660F2E
:10243000771F881FBB1F261737074807AB07B0E871
:1024400009F0BB0B802DBF01FF2793585F4F3AF077
:102450009E3F510578F00C94AC120C94F7125F3F3C
:10246000E4F3983ED4F3869577956795B795F795FD
:102470009F5FC9F7880F911D9695879597F90895E5
:10248000E1E0660F771F881FBB1F62177307840781
:10249000BA0720F0621B730B840BBA0BEE1F88F790
:1024A000E09508950E9459126894B1110C94F712A6
:1024B00008950E94DC1288F09F5798F0B92F992751
:1024C000B751B0F0E1F0660F771F881F991F1AF01F
:1024D000BA95C9F714C0B13091F00E94F612B1E07C
:1024E00008950C94F612672F782F8827B85F39F07B
:1024F000B93FCCF3869577956795B395D9F73EF4B8
:1025000090958095709561957F4F8F4F9F4F08955F
:10251000990F0008550FAA0BE0E8FEEF16161706F4
:10252000E807F907C0F012161306E407F50798F05C
:10253000621B730B840B950B39F40A2661F0232B75
:10254000242B252B21F408950A2609F4A140A695F1
:102550008FEF811D811D089597F99F6780E870E0D6
:1025600060E008959FEF80EC089500240A94161609
:10257000170618060906089500240A941216130671
:10258000140605060895092E0394000C11F48823FF
:1025900052F0BB0F40F4BF2B11F460FF04C06F5F1B
:1025A0007F4F8F4F9F4F089557FD9058440F551FF1
:1025B00059F05F3F71F04795880F97FB991F61F0C5
:1025C0009F3F79F087950895121613061406551F3C
:1025D000F2CF4695F1DF08C0161617061806991FA8
:1025E000F1CF86957105610508940895E894BB279D
:1025F00066277727CB0197F908950E94881208F47F
:102600008FEF08950E9415130C94C3120E94B51207
:1026100038F00E94BC1220F0952311F00C94AC12FB
:102620000C94B21211240C94F7120E94D41270F37D
:10263000959FC1F3950F50E0551F629FF001729F67
:10264000BB27F00DB11D639FAA27F00DB11DAA1F76
:10265000649F6627B00DA11D661F829F2227B00DC3
:10266000A11D621F739FB00DA11D621F839FA00D4E
:10267000611D221F749F3327A00D611D231F849F9E
:10268000600D211D822F762F6A2F11249F575040F5
:102690009AF0F1F088234AF0EE0FFF1FBB1F661F70
:1026A000771F881F91505040A9F79E3F510580F039
:1026B0000C94AC120C94F7125F3FE4F3983ED4F301
:1026C000869577956795B795F795E7959F5FC1F7DD
:1026D000FE2B880F911D9695879597F908958F92F7
:1026E0009F92AF92BF92CF92DF92EF92FF92CF93E1
:1026F000DF93EC01688179818A819B816115710585
:102700008105910521F464E279ED8BE597E02DE1F7
:1027100033EF41E050E00E94C91349015A019B0187
:10272000AC01A7EAB1E40E94E8136B017C01ACEEB6
:10273000B4EFA50194010E94F613DC01CB018C0DCE
:102740009D1DAE1DBF1DB7FF03C00197A109B04875
:1027500088839983AA83BB839F77DF91CF91FF9072
:10276000EF90DF90CF90BF90AF909F908F900895A3
:102770000C946F1382E191E00C946F13A0E0B0E031
:102780008093120190931301A0931401B09315014B
:102790000895052E97FB1EF400940E94E01357FD48
:1027A00007D00E949C1107FC03D04EF40C94E01358
:1027B00050954095309521953F4F4F4F5F4F08956D
:1027C00090958095709561957F4F8F4F9F4F08959D
:1027D0000E94FB13A59F900DB49F900DA49F800DA8
:1027E000911D11240895B7FF0C94E8130E94E8137B
:1027F000821B930B0895A29FB001B39FC001A39FBA
:10280000700D811D1124911DB29F700D811D112429
:08281000911D0895F894FFCF1B
:10281800010000000000000200000000C0010000EC
:102828000000010000002C01370142014D01580150
:0228380063013A
:00000001FF
